:020000022000DC
:10700000F8FF0320B5720200DD720200DF72020099
:10701000E1720200E3720200E5720200000000006B
:10702000000000000000000000000000E772020005
:10703000E972020000000000EB720200ED72020033
:107040000DAB0200EF720200C9B50200351103005A
:10705000E90E0300EF720200BDB002001D1703002D
:10706000EF720200EF720200EF720200EF72020094
:10707000EF720200EF720200EF720200EF72020084
:107080008D1E03008D920200EF720200EF7202006B
:10709000EF720200EF720200A9050300EF72020016
:1070A000EF720200EF720200EF720200EF72020054
:1070B000F5080300EF72020000000000000000006D
:1070C000EF720200EF720200EF720200BDB5020023
:1070D000EF720200EF720200EF720200EF72020024
:1070E0004DBD0200EF720200CDD804000000000088
:1070F00000000000EF72020000000000EF720200CA
:10710000000000000000000000000000000000007F
:10711000000000000000000000000000000000006F
:10712000000000000000000000000000000000005F
:10713000000000000000000000000000000000004F
:10714000000000000000000000000000000000003F
:10715000000000000000000000000000000000002F
:10716000000000000000000000000000000000001F
:10717000000000000000000000000000000000000F
:1071800000000000000000000000000000000000FF
:1071900000000000000000000000000000000000EF
:1071A00000000000000000000000000000000000DF
:1071B00000000000000000000000000000000000CF
:1071C00000000000000000000000000000000000BF
:1071D00000000000000000000000000000000000AF
:1071E000000000000000000000000000000000009F
:1071F000000000000000000000000000000000008F
:1072000010B5054C237833B9044B13B10448AFF3E0
:1072100000800123237010BDF04500200000000015
:107220006CDF050008B5034B1BB103490348AFF3FE
:10723000008008BD00000000F44500206CDF050060
:10724000154B002B08BF134B9D46A3F5803A002138
:107250008B460F461348144A121A2AF0D7FD0F4BDB
:10726000002B00D098470E4B002B00D098470020F1
:10727000002104000D000D48002802D00C48AFF397
:1072800000802AF069FD2000290015F0D5FA2AF0C7
:107290004FFD00BF00000800F8FF032000000000C1
:1072A00000000000F0450020B03203200000000084
:1072B000000000000649074A074B9B1A03DD043B08
:1072C000C858D050FBDC03F0A5F8FFF7B9FF000069
:1072D00084E10500E03D0020F0450020FEE7FEE7E8
:1072E000FEE7FEE7FEE7FEE7FEE7FEE7FEE7FEE776
:1072F000704700BF00B583B0044B0093044A4FF4BD
:10730000007300F035F803B05DF804FB157302005C
:107310001046002002B32DE9F843114B114E884668
:10732000144643F0010903270025224608EB050116
:10733000002005F0B3F903461D444FF47A40E41AE7
:1073400023B9337833B1C847013F06D001233370E6
:10735000002CEAD1BDE8F88370473770BDE8F883A8
:10736000B03D05000C460020704700BF05F074BA20
:10737000F0B595B000241D460E460846174602F0AB
:10738000B9FD304623460822099505A91A9D08979C
:107390000D950A948DF82C400C9402F00FFE9DF888
:1073A00014308DF81140DDE9061003F00302012AC4
:1073B000CDE9020128D0022A04D0304602F09EFD19
:1073C00015B0F0BDBDF81650C3F3C2038DF81030F0
:1073D000C5F389150827082D2C4628BF08243B46ED
:1073E00022460EA9304602F0E9FD2D1B214608ABCE
:1073F00002AA0EA8274401F0CDF9002DEBD13046AA
:1074000002F07CFD15B0F0BDBDF81470059DC7F30A
:107410008312C3F3C2040EA93046920008238DF8EC
:107420001040C7F3831702F0C9FDC5F3952508ABDB
:107430003A4628460EA9009302AB01F033F93046D4
:1074400002F05CFD15B0F0BD08B5FFF78FFF0448F2
:10745000042101F0A5F8034B01225A7108BD00BFB9
:107460006CE10500E03D0020064B074810B5002206
:107470001A7002F0D5FC044610B9044802F058FE18
:10748000204610BDE048002024E00500EC3D05004A
:1074900099B10E4B0E495B1ADB0815D030B40022AF
:1074A0000C4D02E0013293420BD035F82240844269
:1074B000F8D151F8320030BC7047054951F830001E
:1074C0007047002030BC7047184670476CE10500DB
:1074D00054E00500F0450020094B013903EBC000E2
:1074E00003290BD8DFE801F00402080604207047E6
:1074F000022070474079704700797047002070473C
:1075000054E005002DE9F0438C4CD4E901239A4264
:1075100085B060D00023C4F81834BFF34F8FA5683E
:10752000EAB2D31C04EB830114F82330580718D5B2
:1075300066680B7803F00303012B42D0022B03D1C2
:107540004B88023505EB9315EAB2D4F81804D31C26
:1075500004EB830128B9AE4239D914F823305B0714
:10756000E7D404EB82026B1CD2680192DBB204EB1D
:10757000830302F00302DB680293022A05F102068C
:107580002DD0012A00F08D80D4F810543DB12B6825
:1075900028469B689847EB681D68002DF7D168481E
:1075A000684B6949C01AC008000440F0020000F0AE
:1075B000D1F8D4E90130C01A18BF012005B0BDE8E8
:1075C000F0830B880235C3F383131D44BCE7A66028
:1075D00005B0BDE8F083002005B0BDE8F083BDF83C
:1075E00006305A48C3F389184546502D28BF502508
:1075F00065F38F1305F10801ADF8063002F012FCB7
:1076000007460028C0D002F075FC002301A908221B
:10761000384602F09FFCF343DBB20133B5EB830F36
:107620004FEA8309F1B277D9A5EB0905033104EBE1
:10763000810108234A463846EDB202F08BFC4449EA
:107640002A4609F10803384602F084FC08F10308D1
:1076500006EB9806D4F81834002B6AD1D4F81054ED
:1076600065B1EB685A7928463946002A5DD02B6807
:107670001B689847EB681D68002DF2D1384602F070
:107680003DFC00230DF103008DF8033001F06AFC8E
:10769000D4F8183403B9A6609DF8030001F088FC03
:1076A00087E7BDF804302948C3F38312062A28BFB0
:1076B0000622911C62F389138900ADF8043002F0B0
:1076C000B1FB074600283FF45FAF02F013FC002334
:1076D000082201A9384602F03DFCBDF8043013F43D
:1076E000707FB7D06FF00108A8EB05080825F1B24C
:1076F00003312B46042204EB8101384602F02AFCB8
:10770000BDF80420013608EB0603C2F383129A4247
:1077100005F10405EBD89DE703312A4604EB81010E
:107720000823384602F016FC90E71D68002D98D11A
:10773000A4E7384602F0E2FB3BE700BFE048002048
:107740009CE0050054E00500D43D050024E0050060
:10775000EC4800202DE9F04F5E4C87B00023064630
:107760000DF10B008DF80B300F4601F0FBFBD4E957
:10777000015303F580735B1B012B7DD804F21C4879
:1077800004F5836A04F214491AE0BDF80E30C3F31D
:1077900089130333090C0BEB930B4846019101F05D
:1077A00027FF0199002839D04046C4F808B001F0FD
:1077B000E3FED4E9013202F58072D21A012A5CD8C4
:1077C0000121404601F0D8FE504601F001FF484635
:1077D00001F0FEFEA368DAB2D11C04EB810014F8BC
:1077E000211001F0040C490728D404EB8202591C33
:1077F000D2680392C9B204EB810102F00302012AAC
:10780000C96803F1020B30D0022ABED000214846DD
:10781000019101F0EDFE01990028C5D14046C6E76F
:1078200043880EEB9313DAB2D11C04EB810014F8F9
:10783000211001F0040CBCF1000FD6D0017801F04A
:10784000030101290BD0022903F1020E02F1030109
:10785000E6D004EB8100BCF1000FEFD1C5E7028850
:107860000233C2F383121344DDE7BDF80C30C3F3D7
:107870008313090C9B4490E72B46DAB203320233A0
:1078800005219DF80B0044F82210636001F090FB85
:107890000021114801F02AFE80F31000F1006B1C5A
:1078A00001F03801DBB2EDB204EB830341F00101DA
:1078B0000004033540EA164641EA8727DE6044F8B3
:1078C000257023781BB1FFF71DFE0028FBD107B000
:1078D000BDE8F08FE0480020FC4C00202DE9F04F7F
:1078E000904689B0DFF8ECB108F1030A02460023A4
:1078F0004FEA9A040DF11300CDE902218DF81330FF
:10790000019401F02FFBDBE9012303F58073A51C33
:107910009B1A9D4200927AD90BF21C440BF58369A5
:107920000BF2144719E0BDF81630C3F38913033383
:10793000360C0AEB930A384601F05AFE314600280D
:1079400039D02046CBF808A001F016FEDBE9012370
:1079500003F580739B1A9D4259D90121204601F0FD
:107960000BFE484601F034FE384601F031FEDBF8EC
:107970000830DAB2D11C0BEB81061BF8210000F0B5
:107980000401400726D40BEB8202591CD2680592F1
:10799000C9B20BEB810102F00302012ACE6803F1A8
:1079A000020A2DD0022ABED0384601F021FE002660
:1079B00031460028C5D12046C6E773880CEB9313E7
:1079C000DAB2D11C0BEB81061BF8211001F0040187
:1079D0000029D8D0307800F0030001280AD002280E
:1079E00003F1020C02F10300E7D00BEB8006002943
:1079F000F0D1C8E732880233C2F383121344DFE7C1
:107A0000BDF81430C3F38313360C9A4493E7D3B212
:107A10001544019A9DF813000333062162F39F5128
:107A20004BF82310CBF8045001F0C2FA009B981CCD
:107A3000C0B2C0F58073B8EB830F00F103004FEACA
:107A400083040BEB80003CD9039D224629462AF093
:107A5000B5F92B4623441D481946A8EB04022AF029
:107A6000ADF900211A4801F041FD80F310000099A2
:107A7000029C4B1CDBB2220C0BEB8303CEB2033611
:107A800042EA0040D860E2005BF8263002F038029B
:107A900042F0020242EA885803F47C1248EA0202E9
:107AA0004BF826209BF8003013B909B0BDE8F08FE1
:107AB000FFF728FD0028F8D0FFF724FD0028F7D1B4
:107AC000F3E7039942462AF079F9CAE7EC48002027
:107AD000FC4C0020E04800202DE9F04F634C87B0BB
:107AE000002306460DF10B008DF80B300F46904633
:107AF00001F038FAD4E9015303F580735B1B022BC4
:107B00007FD804F21C4904F5836B04F2144A1BE08D
:107B1000BDF80E20C2F389120332090C03EB920365
:107B20005046CDE9003101F063FD019900283AD0BB
:107B3000009BA360484601F01FFDD4E9013202F525
:107B40008072D21A022A5DD80121484601F014FD44
:107B5000584601F03DFD504601F03AFDA368DAB207
:107B6000D11C04EB810014F8211001F0040C49072A
:107B700029D404EB8202591CD2680392C9B204EBE7
:107B8000810102F00302012AC96803F1020331D026
:107B9000022ABDD000215046CDE9003101F028FD78
:107BA00001990028C4D14846C5E743880EEB9313DA
:107BB000DAB2D11C04EB810014F8211001F0040C9E
:107BC000BCF1000FD5D0017801F0030101290BD0E1
:107BD000022903F1020E02F10301E6D004EB810059
:107BE000BCF1000FEFD1C4E702880233C2F3831265
:107BF0001344DDE7BDF80C20C2F38312090C1344D3
:107C00008EE72B46DAB20332033345219DF80B0091
:107C100044F82210636001F0CBF9AB1CDBB204EB3B
:107C2000830300211248C3F80C8001F05FFC80F34D
:107C30001000F1006B1C01F03801DBB2EDB204EB77
:107C4000830341F041010004033540EA164641EA4E
:107C50008727DE6044F8257023781BB1FFF752FCBC
:107C60000028FBD107B0BDE8F08F00BFE04800203E
:107C7000FC4C00202DE9F04F684C89B000250646E9
:107C80000DF113001F468DF813508846039201F042
:107C900069F9D4E9015303F580735B1B032B00F2F0
:107CA000828004F21C4904F5836B04F2144A1BE041
:107CB000BDF81620C2F389120332090C03EB9203BC
:107CC0005046CDE9013101F093FC029900283BD0E8
:107CD000019BA360484601F04FFCD4E9013202F554
:107CE0008072D21A032A5FD80121484601F044FC71
:107CF000584601F06DFC504601F06AFCA368DAB208
:107D0000D11C04EB810014F821C01CF0040F0CF00E
:107D1000040128D104EB8202591CD2680592C9B231
:107D200004EB810102F00302012AC96803F1020396
:107D300032D0022ABCD000215046CDE9013101F0F9
:107D400057FC02990028C3D14846C4E743880EEB8C
:107D50009313DAB2D11C04EB810014F8211001F066
:107D600004010029D6D090F800C00CF0030CBCF13F
:107D7000010F0BD0BCF1020F03F1020E02F1030C54
:107D8000E4D004EB8C000029EDD1C3E70288023374
:107D9000C2F383121344DCE7BDF81420C2F383124C
:107DA000090C13448CE72B46DAB2033204338521E5
:107DB0009DF8130044F82210636001F0F9F8AA1C42
:107DC000EB1CDBB2D2B204EB830C04EB8202039B0C
:107DD0001348D3600021CCF80C7001F087FB80F3CE
:107DE0001000F1006B1C01F03801DBB2EDB204EBC6
:107DF000830341F081010004033540EA164641EA5D
:107E00008821DE6044F8251023781BB1FFF77AFB48
:107E10000028FBD109B0BDE8F08F00BFE04800208A
:107E2000FC4C00202DE9F04F6B4C89B00025064634
:107E30000DF113001F468DF813508846039201F090
:107E400091F8D4E9015303F580735B1B042B00F216
:107E5000828004F21C4904F5836B04F2144A1BE08F
:107E6000BDF81620C2F389120332090C03EB92030A
:107E70005046CDE9013101F0BBFB029900283BD00F
:107E8000019BA360484601F077FBD4E9013202F57B
:107E90008072D21A042A5FD80121484601F06CFB97
:107EA000584601F095FB504601F092FBA368DAB208
:107EB000D11C04EB810014F821C01CF0040F0CF05D
:107EC000040128D104EB8202591CD2680592C9B280
:107ED00004EB810102F00302012AC96803F10203E5
:107EE00032D0022ABCD000215046CDE9013101F048
:107EF0007FFB02990028C3D14846C4E743880EEBB4
:107F00009313DAB2D11C04EB810014F8211001F0B4
:107F100004010029D6D090F800C00CF0030CBCF18D
:107F2000010F0BD0BCF1020F03F1020E02F1030CA2
:107F3000E4D004EB8C000029EDD1C3E702880233C2
:107F4000C2F383121344DCE7BDF81420C2F383129A
:107F5000090C13448CE72B46DAB203320533C521F2
:107F60009DF8130044F82210636001F021F8A81C6A
:107F7000EA1C2B1DC0B2DBB204EB8000D2B204EBD2
:107F8000830C04EB8202039BC3600021129B134805
:107F9000D760CCF80C3001F0A9FA80F31000F100A2
:107FA0006B1C01F03801DBB2EDB204EB830341F04E
:107FB000C1010004033540EA164641EA8821DE602B
:107FC00044F8251023781BB1FFF79CFA0028FBD159
:107FD00009B0BDE8F08F00BFE0480020FC4C002055
:107FE0002DE9F04F704C89B0002506460DF11300C5
:107FF0001F468DF813508846039200F0B3FFD4E972
:10800000015303F580735B1B052B00F2828004F2A1
:108010001C4904F5836B04F2144A1BE0BDF81620DA
:10802000C2F389120332090C03EB92035046CDE9E7
:10803000011301F0DDFA019900283BD0029BA360F7
:10804000484601F099FAD4E9013202F58072D21A59
:10805000052A5FD80121484601F08EFA584601F002
:10806000B7FA504601F0B4FAA368DAB2D11C04EBB7
:10807000810014F821C01CF0040F0CF0040128D179
:1080800004EB8202591CD2680592C9B204EB81014B
:1080900002F00302012AC96803F1020332D0022A66
:1080A000BCD000215046CDE9011301F0A1FA01999D
:1080B0000028C3D14846C4E743880EEB9313DAB2D5
:1080C000D11C04EB810014F8211001F004010029F7
:1080D000D6D090F800C00CF0030CBCF1010F0BD00F
:1080E000BCF1020F03F1020E02F1030CE4D004EB29
:1080F0008C000029EDD1C3E702880233C2F383125A
:108100001344DCE7BDF81420C2F38312090C1344B6
:108110008CE72B46DAB20332063340F205119DF8A4
:10812000130044F82210636000F042FFA91C05F11F
:10813000030C2A1DC9B25FFA8CFC6B1D04EB810194
:1081400004EB8C0CD2B20398C86004EB8202DBB261
:10815000CCF80C7004EB8303129FD7600021139AB4
:108160001248DA6001F0C2F980F31000F1006B1CD4
:1081700001F0380141F48071DBB2EDB204EB83030E
:1081800041F001010004033540EA164641EA882126
:10819000DE6044F8251023781BB1FFF7B3F90028FF
:1081A000FBD109B0BDE8F08FE0480020FC4C002076
:1081B0002DE9F04F8FB01E46CDE90926764C189D6B
:1081C0000B951746199A0C9200231A9A8DF81730BE
:1081D00080460DF1170003910D9200F0C3FED4E923
:1081E000015303F580735B1B062B00F2828004F2BF
:1081F0001C4904F5836B04F2144A1BE0BDF81A20F5
:10820000C2F389120332090C03EB92035046CDE905
:10821000013101F0EDF9029900283BD0019BA360E8
:10822000484601F0A9F9D4E9013202F58072D21A68
:10823000062A5FD80121484601F09EF9584601F010
:10824000C7F9504601F0C4F9A368DAB2D11C04EBB7
:10825000810014F821C01CF0040F0CF0040128D197
:1082600004EB8202591CD2680692C9B204EB810168
:1082700002F00302012AC96803F1020332D0022A84
:10828000BCD000215046CDE9013101F0B1F902998D
:108290000028C3D14846C4E743880EEB9313DAB2F3
:1082A000D11C04EB810014F8211001F00401002915
:1082B000D6D090F800C00CF0030CBCF1010F0BD02D
:1082C000BCF1020F03F1020E02F1030CE4D004EB47
:1082D0008C000029EDD1C3E702880233C2F3831278
:1082E0001344DCE7BDF81820C2F38312090C1344D1
:1082F0008CE72B46DAB20332073340F245119DF882
:10830000170044F82210636000F052FEA91CE81C1C
:1083100005F1040CC9B2C0B26A1D04EB810104EB83
:1083200080005FFA8CFCAB1D04EB8C0CD2B2CF60EA
:1083300004EB8202C660DBB2189ECCF80C6004EB42
:108340008303199ED66000211A9A1448DA6001F05E
:10835000CDF880F310004FEAC8016B1C01F0380122
:10836000039A41F4A071DBB2EDB204EB830341F058
:1083700001010004033540EA184041EA8221D86037
:1083800044F8251023781BB1FFF7BCF80028FBD177
:108390000FB0BDE8F08F00BFE0480020FC4C00208B
:1083A0002DE9F04F8FB01E46CDE908261746199AE1
:1083B0000B92794C1A9A189D0C9200231B9A0A95DD
:1083C00080460DF113008DF8133003910D9200F0EB
:1083D000C9FDD4E9015303F580735B1B072B00F241
:1083E000828004F21C4904F5836B04F2144A1BE0FA
:1083F000BDF81620C2F389120332090C03EB920375
:108400005046CDE9013101F0F3F8029900283BD044
:10841000019BA360484601F0AFF8D4E9013202F5B0
:108420008072D21A072A5FD80121484601F0A4F8C9
:10843000584601F0CDF8504601F0CAF8A368DAB208
:10844000D11C04EB810014F821C01CF0040F0CF0C7
:10845000040128D104EB8202591CD2680592C9B2EA
:1084600004EB810102F00302012AC96803F102034F
:1084700032D0022ABCD000215046CDE9013101F0B2
:10848000B7F802990028C3D14846C4E743880EEBE9
:108490009313DAB2D11C04EB810014F8211001F01F
:1084A00004010029D6D090F800C00CF0030CBCF1F8
:1084B000010F0BD0BCF1020F03F1020E02F1030C0D
:1084C000E4D004EB8C000029EDD1C3E7028802332D
:1084D000C2F383121344DCE7BDF81420C2F3831205
:1084E000090C13448CE72B46DAB20332083340F20E
:1084F00085119DF8130044F82210636000F058FDC8
:10850000A81CE91C05F1040CC0B2C9B26A1D04EB39
:10851000800004EB81015FFA8CFCAB1D04EB8C0C3A
:10852000D2B2C76004EB8202CE60EF1D189ECCF879
:108530000C60DBB2199ED66004EB8303FFB21A9A7B
:10854000DA6004EB87071B9B1448FB60002100F0F6
:10855000CDFF80F310004FEAC8016B1C01F0380119
:10856000039A41F4C071DBB2EDB204EB830341F036
:1085700001010004033540EA184041EA8221D86035
:1085800044F8251023781BB1FEF7BCFF0028FBD16F
:108590000FB0BDE8F08F00BFE0480020FC4C002089
:1085A00030B4154DD5F810140446002071B10B46B7
:1085B00001E01B6853B1DB681A798242F9D10130BE
:1085C0000A28F3D14FF0FF3030BC7047E3681871D0
:1085D000D5F810344BB1DA68E36812681A60D5F840
:1085E0001034DB681C6030BC7047C5F81044E2688A
:1085F000136030BC704700BFE048002038B5084B1E
:10860000D3F8104401251D704CB1E3685D712368F7
:1086100020465B689847E3681C68002CF5D138BD9C
:10862000E048002030B5C38885B004460D461BBB2A
:10863000217A05291ED0627A82B9134AA08852F89D
:10864000212003920021FEF723FF039A0F490346DE
:10865000284605B0BDE8304001F046B8A088FEF7D6
:108660003BFF0B4B0B4953F82020284601F03CF808
:10867000217AE2E705B030BD074A00920749084A6F
:10868000284601F031F8D3E7BC3E0500203E050046
:10869000983E050044590500183E0500003E0500BF
:1086A000F83D05002DE9F04385B04FF0000C0C9C1F
:1086B000814694F80C8084F80CC00E461746184684
:1086C00021461D46FFF7AEFF062F09D8DFE807F069
:1086D000042E343B444F1F004946204601F004F865
:1086E0002B7A052B05D06B7A5BB92749204600F021
:1086F000FBFF204600F0ECFF84F80C8005B0BDE8DD
:10870000F083224A2249204600F0EEFFEDE7D6E949
:108710000413F2680393B3680291CDE9003249462D
:10872000D6E90023204600F0DFFFD9E7326849464A
:10873000204600F0D9FFD3E7D6E90023494620467A
:1087400000F0D2FFCCE7B3680093D6E90023494696
:10875000204600F0C9FFC3E7D6E902320192009338
:10876000D6E900234946204600F0BEFFB8E7D6E927
:108770000321B3680291CDE900324946D6E90023CE
:10878000204600F0B1FFABE7A87E0500183E0500CB
:1087900044590500082900D970472DE9F04F9B4640
:1087A00083B000241B7B8BF80C400D4606465946CF
:1087B000104690460193DFF8D0902C4FFFF732FF20
:1087C00005E0325D013400F08FFF082C09D0A5428E
:1087D00039465846F5D84946013400F085FF082C43
:1087E000F5D12349DFF8A490224C234F584600F0DE
:1087F0007BFF4FF0000A0DE0D15D11F0970F08BF2D
:108800002E22214658460AF1010A00F06DFFBAF106
:10881000080F10D0554505D916F80A207E2AEBD945
:108820002E22EEE7494658460AF1010A00F05CFFA5
:10883000BAF1080FEED198F80830052B02D098F85D
:10884000093063B90D49584600F04EFF584600F014
:108850003FFF019B8BF80C3003B0BDE8F08F084A56
:108860000849584600F040FFECE700BF2C3E0500E9
:10887000383E05003C3E0500D1DD0500A87E050020
:10888000183E050044590500343E05009C8C050047
:1088900000B585B00346002101AA44F20100CDE9EC
:1088A0000111039300F004F805B05DF804FB00BF6C
:1088B00010B572B6FFF7A2FEFEF724FE0028FBD12A
:1088C000104B114C1149E41AE408240444F001004F
:1088D000FEF740FF0E4B1B68DB0700D500BE0D49BD
:1088E00044F00200FEF736FFBFF34F8F0A490B4BEF
:1088F000CA6802F4E0621343CB60BFF34F8F00BF3E
:10890000FDE700BF54E005009CE00500DC3E0500EB
:10891000F0ED00E0E83E050000ED00E00400FA059F
:1089200059B142B1531E1A4005D182600160838063
:10893000C26010467047092070470E20704700BF84
:1089400010B48468C26803468088121B904203D228
:1089500004205DF8044B7047DA681C680240002070
:10896000A154DA680132DA605DF8044B704700BF49
:1089700003468068DA6890420DD010B498689A88EF
:108980001C6802400020A25C0A709A6801329A605A
:108990005DF8044B70470520704700BF30B4846811
:1089A000C3681B1B994202D3052030BC7047856801
:1089B000848803682944214000205B5C137030BC2C
:1089C000704700BFD0E90223D1E90201994208BFF4
:1089D00090422CBF01200020704700BF2DE9F04FCE
:1089E0002DED028B85B0064600F00EFC40B1B54A75
:1089F000D2E9003113F1807341F10001C2E9003185
:108A00000021304600F01CFCAF4C60B1236853B12C
:108A1000AE4B25681B7823B11DB12B7F002B40F096
:108A20001C81002323600121304600F009FC00284E
:108A300040F0F680A64803A900F0AAFC78B3A54D43
:108A4000DFF88882A24F0BE0002B00F0CD8003A955
:108A5000384600F0CDFC03A9384600F099FCF0B18F
:108A60000378012B12D0022BEED128464FF00009DB
:108A700001F096FB30B180F81C90284601F090FB85
:108A80000028F8D1012388F80030E0E74168236826
:108A9000994200F0BA80284601F08CFBD7E7DFF856
:108AA00034828D4FDFF81C9208EE106A37E04046A2
:108AB00001F076FB05463846AB68EA680193009200
:108AC00000F0CEFB854E8446D9E90001D6E90023AB
:108AD00010EB0C0041F10001994208BF9042DDE922
:108AE000002303D210F1807041F10001B3EB000AC2
:108AF00062EB010BBAF1010F7BF1000329DBBAF540
:108B0000350F6BD2AA684FF496030021384600F067
:108B1000F5FA00285AD00D281FD0002323604046C4
:108B200001F044FB002873D02368002BBFD02368DA
:108B3000D0E90201D3E90223994208BF904248D20A
:108B400023681B7F002BB2D02168404601F014FB44
:108B5000ADE70021384600F067FB5C4B1B78002B2B
:108B6000DBD02B7F002BD8D0384600F079FB844631
:108B7000D9E90001D6E9002310EB0C0041F1000116
:108B8000994208BF904203D210F1807041F1000178
:108B9000D5E90223994208BF904259D32B6903B902
:108BA0002B77D5E90530984729690029B5D02B7F67
:108BB000002BB2D0D5E90223521843F10003C5E9D6
:108BC00002232946404601F0D7FAA6E72368BBB145
:108BD000256005B0BDEC028BBDE8F08F384600F093
:108BE0003FFB3F4A02448EE743681A7F002A7FF426
:108BF0002EAF01221A774168284601F0BDFA26E718
:108C000018EE100A00F04CFAE2E7002323601EE79A
:108C10002368002BDDD118EE100A00F045FAD8E7E2
:108C20002D482E4D00F01CFB264BD3E90089D5E9D9
:108C3000002318EB000849F10009994508BF904549
:108C400003D218F1807849F10009C5E90089F1E6FD
:108C50002946404601F090FA5FE71F4800F000FB0C
:108C6000184A1E4BD2E90089D3E9002318EB00080B
:108C700049F10009994508BF904503D218F1807861
:108C800049F10009D5E90223994508BF904529D348
:108C90002B6903B92B77D5E9053098472969002955
:108CA0003FF4BFAE2B7F002B3FF4BBAED5E90223D0
:108CB000521843F10003C5E902230648294601F092
:108CC0005BFAAEE6A04D0020204E0020A84D00200B
:108CD000044E0020083F0500E83D0020184E00200B
:108CE000FFFFB4000248294601F046FA99E600BFAA
:108CF000083F050010B5134B13491B68134882B099
:108D000058220193082300F0CBFA044610B1204604
:108D100002B010BD0E4A0F4801A900F061F90446E7
:108D20000028F4D10B48012100F064FA0123194610
:108D3000094A084800F0BCF9084B012220461A7085
:108D400002B010BD043F0500AC4D0020044E0020D1
:108D5000DD890200E83D0020FFFF7F00A84D0020D4
:108D60004AB1A1F101010368B1FA81F14909C3E9EE
:108D70000412002070470720704700BF037F0BB12B
:108D800000207047F0B5826183B004461A480D4652
:108D900000F066FA194B1A49D3E90023D1E90067BC
:108DA000121843F10003BB4208BFB24203D212F1D2
:108DB000807243F100035219216943F10003C4E9B1
:108DC000022301B125610F4801A900F0A3FA48B1BF
:108DD00000254460057001A90A4800F0C9FA20B9CD
:108DE00003B0F0BD042003B0F0BD034800F03CFA2E
:108DF000284603B0F0BD00BFE83D0020A04D002094
:108E0000184E0020044E002030B5002583B00446E3
:108E1000057701A90B4800F07DFA78B10122446082
:108E2000027001A9074800F0A3FA08B903B030BDE9
:108E3000054800F019FA284603B030BD042003B0FD
:108E400030BD00BF044E0020E83D002010B50E4BA1
:108E50000E4882B0002401A91C7000F05BFA78B1C2
:108E600002234460037001A9084800F081FA08B9A0
:108E700002B010BD064800F0F7F9204602B010BD60
:108E8000042002B010BD00BFA84D0020044E0020F9
:108E9000E83D002070B5114D014611482E78FFF7CE
:108EA00067FD04460EB9204670BD0E480E4A037891
:108EB000D35C00222A7053B10C490430012203F024
:108EC000D5FA0028EFD0FFF7E3FC204670BD074934
:108ED00001220C3002F096FEF3E700BF344E002072
:108EE000244E0020F03D0020B02C0320484E0020EE
:108EF00070B501461548FFF723FD044608B120462A
:108F000070BD134D134E2B78F35CA3B1281D03F0F5
:108F10009FFA0028F3D110490C48FFF729FD0028DB
:108F2000EDD12B780C49F35C01224BB1BDE87040C8
:108F30000A4803F033BA05F10C0002F057FEE8E7E7
:108F4000BDE87040064802F0E9BD00BF384E002081
:108F5000F03D0020B02C03204C4E0020F43D0020BA
:108F6000FC3D002070B4EFF3108472B60D4B9A688C
:108F7000AAB90D490D4E01259D60D1F880503540AC
:108F80001D60C1F88060D1F884505D604FF0FF3300
:108F9000C1F88430027004B962B670BC7047012316
:108FA0000370F8E7A42C032000E100E0FC06FFBDFD
:108FB000094B9A687AB170B910B4EFF3108172B6A8
:108FC000064A1C6814605C685460986001B962B617
:108FD0005DF8044B70477047A42C032000E100E0CB
:108FE00070B5274C4379274E04EBC30546F8232080
:108FF0002D79002D37D103680A88C3F8082590F928
:1090000004308A78002B26DB03F1604303F56143CB
:109010005201D2B283F8002390F90430002B07DB11
:10902000194903F01F0501225B09AA4041F82320DA
:109030004279164B164D44F83200581B04EBC2041B
:10904000C008012300041349237140F00300FEF718
:1090500081FB002070BD104903F00F035201194439
:10906000D2B20A76D8E70A4B08480C49C01AC008A1
:10907000000440F00200FEF76DFB082070BD00BF49
:10908000504E0020584E002000E100E0ACE005000A
:1090900054E00500383F0500FCEC00E0143F0500FB
:1090A000036801221A607047036801225A60704702
:1090B000F0B404684FF480358D40C4F80853066856
:1090C00001F15004C6F84853A4000668A4B2002772
:1090D000375182B036590468019601F5A87122F023
:1090E0007F42019E44F821200268C2F8445313B124
:1090F0000368C3F8045302B0F0BC70472DE9F04791
:1091000004464FF4803600688E40C0F848632068FB
:10911000C0F80863206800EB81058A46D0F8041582
:10912000D5F84005C5F840150AF15005AD0027688F
:10913000ADB24FF0000847F8058082B0401A7F5961
:10914000009720F07F40012822F07F479946009A3F
:1091500041D02268D2F80455C2F844637A1B22F049
:109160007F42012A0AF5A87125D0226842F82170B1
:109170002068D0F804557A1BC9F1FF13013A03F5B2
:109180007F4322F07F42934211D342B1C0F844633F
:1091900023680020C3F8046302B0BDE8F0870137FC
:1091A00040F821702068D0F804359D42EED00D20A3
:1091B00002B0BDE8F08720680D4B013740F8217000
:1091C00043F001034FF4806098472068D0F80435DD
:1091D0009D42DBD0EBE7064A4FF4806042F001028B
:1091E0009047226842F8058052590192019AB0E7EF
:1091F000503F050002680223C2F8443311B10268EF
:10920000C2F80433704700BF0368D3F8040100B903
:109210007047002282B0C3F80421D3F804310193CF
:10922000019B012002B0704702684FF4803303FABB
:1092300001F1C2F848130368C3F80813704700BF70
:1092400050318900036889B2585800B9704700222C
:109250005A5082B05B580193019B012002B07047C5
:109260000368D3F80405704790F90430002B09DB3C
:109270005A090548403203F01F03012101FA03F3A4
:1092800040F82230704700BF00E100E0024A034B83
:1092900010681B68184700BF504E0020584E002031
:1092A00099B110B4B2FBF3F403FB1424A4B244B993
:1092B000C0E9001484608281C38120465DF8044BBC
:1092C000704709205DF8044B70470E20704700BFBF
:1092D00082B050E8022FC188B2EB324F4FF000034A
:1092E00017BF92B241EA014142EA014104E04268FB
:1092F000B2EB324F08BF012340E80212002AE8D146
:109300008DF807309DF80730002B0CBF112000208E
:1093100002B0704730B482B050E8013F9DB2C489BA
:1093200025448489A54228BF2D1B0489A54202BF7C
:10933000BFF32F8F002207E0C5EA030540E8015480
:10934000002CE9D14FF001028DF803200193019B1D
:109350009DF803200B602AB10B880068184402B006
:1093600030BC704702F0FF03184602B030BC7047B3
:109370000A884B889A4201D00020704750E8012F9C
:10938000C2EA024240E80123002BF7D101207047D6
:1093900030B482B050E8023F1FFAA3F5C488A5425A
:1093A00002BFBFF32F8F00220DE0C48925448489BA
:1093B000A54228BF2D1BC3EA054540E80254002CF6
:1093C000E8D14FF001028DF803200193019B9DF835
:1093D00003200B602AB14B880068184402B030BCEF
:1093E000704702F0FF03184602B030BC704700BF60
:1093F0000A884B889A4201D00020704750E8022F1B
:10940000C2EA224240E80223002BF7D10120704734
:109410004A09012301F01F0100EB820003FA01F168
:1094200000F080B84B0910B501F01F04012100EBDA
:109430008300A14000F068F8E04000F0010010BD9A
:1094400001F01F0201234909934000EB8100D94339
:1094500000F076B84B0901F01F0150F82300C84016
:1094600000F00100704700BF2DE9F04F01F1FF3B14
:1094700083B04FEA5B130F460546019300264FF079
:10948000010A55F8264005EB8608E44394FAA4F453
:10949000FCB1B4FA84F404EB46144FEA4619A7422F
:1094A00017D904F01F0360090AFA03F105EB8000E5
:1094B0009B4600F029F820FA0BF0C30711D5D8F825
:1094C0000030DB4393FAA3F3B3FA83F44C44002B4C
:1094D000E5D1019AB24206F1010301D01E46D0E760
:1094E0003C46204603B0BDE8F08F00BF10B40346F1
:1094F00053E8000F0A4643E8002494F0000FF7D128
:109500005DF8044B704700BF10B4034653E8000FEA
:1095100040EA010243E8002494F0000FF6D15DF820
:10952000044B704710B4034653E8002F42EA010091
:1095300043E8000494F0000FF6D15DF8044B704747
:1095400010B4034653E8002F02EA010043E8000488
:1095500094F0000FF6D15DF8044B704710B4034649
:1095600053E8000F00EB010243E8002494F0000FE1
:10957000F6D15DF8044B704710B4034653E8002F52
:1095800002EB010043E8000494F0000FF6D15DF80F
:10959000044B704710B4034653E8002FA2EB0100C0
:1095A00043E8000494F0000FF6D15DF8044B7047D7
:1095B00010B40346012253E8000F40EA020143E8D9
:1095C000001494F0000FF6D15DF8044B704700BF13
:1095D00010B40346012253E8001F41EA020043E8A9
:1095E000000494F0000FF6D15DF8044B704700BF03
:1095F00010B40346002253E8000F00EA020143E8DA
:10960000001494F0000FF6D15DF8044B704700BFD2
:10961000B8B130B4D0E90112521A0468D2B2531E64
:109620002160DBB242B101680A685C1E551C0D6006
:109630001370E3B2FF2BF6D103680020187130BC21
:1096400070470E20704700BFF0B583B00446002578
:109650000DF107008DF80750FFF784FCD4E90031C5
:109660001A688A4210D9511E19602168A3680F68D0
:1096700012F8015C0A79268AE068DB1BDBB29A42A9
:1096800006FB050538BF0B719DF80700FFF790FC3E
:10969000284603B0F0BD00BF30B5054683B00023B7
:1096A0000DF107000C468DF80730FFF75BFC2A68C8
:1096B0001368591C1160E9682A8A641AB4FBF2F431
:1096C0001C709DF80700FFF773FC03B030BD00BFAE
:1096D000826842B110B50446436901680069984741
:1096E0000023A36010BD70470EB400B582B003998B
:1096F00021B104AB01AA019300F0ACF802B05DF80F
:1097000004EB03B0704700BF2DE9F04F164683B05D
:10971000B142DDE90C920F4605469A46C0F09580AD
:109720000B464FF00108B3FBF6F39E4208F1010827
:10973000F9D9D04538BFD04612F00103019302D1C8
:10974000B9F1000F5ED1AA68012403E00AF1FF3AE3
:1097500006FB04F4BAF1010FF8D8B7FBF4F39E420C
:10976000F6D9DFF8ECA007E0B442B4FBF6F31AD365
:10977000AA681C46B7FBF3F31AF803B0BBF10A0F53
:1097800004FB137728D02B68511CA96003F802B0A2
:10979000D5E901329A42E7D32846FFF799FFB4FB97
:1097A000F6F3B442E4D2019B9BB1B9F1000F10D0A3
:1097B0002024C84509F1FF390BD2AB682A68591C2F
:1097C000A960D454D5E901329A4214D2B9F1000FFC
:1097D000EFD103B0BDE8F08F511C2B68A9604FF0AA
:1097E0000D019954D5E901329A42CCD32846FFF7AE
:1097F0006FFFAA68C7E72846FFF76AFFB9F1000FB5
:10980000D7D1E6E793071AD42024AA68C84502F105
:10981000010199D22B68A9609C54D5E901329A4282
:1098200009F1FF3903D2B9F1000FEFD18CE72846D7
:10983000FFF74EFFAA68B9F1000FE7D184E7BAF14C
:10984000000F0CBF30242024DFE74FF0010870E741
:10985000583F0500002900F054822DE9F04FDFF851
:10986000B8950C7885B0064690460D464FF00D0A27
:1098700010E00A2CB36800F0AD803268591CB1606A
:10988000D454D6E901329A4280F0A0802C78002C82
:1098900000F087800135002C00F08380252CE8D172
:1098A000294600270D4611F8012B2D2A00F088804B
:1098B000302A00F088802B2A7AD02A2A00F099805A
:1098C000A2F13003092B4FF000040BD804EB840401
:1098D00002EB440415F8012FA2F13003092BA4F187
:1098E0003004F3D92E2A00F09080002301E015F80F
:1098F000012F02F0FB016829F9D0252A00F07781B9
:10990000583AD1B2202947D8202A45D8DFE812F0AA
:109910003501440044004400440044004400440035
:109920004400440044004301130144004400440047
:109930004400130144004400440044004400440037
:10994000D20044004400A2004400940044004400BB
:10995000350101209842024638BF1A460292002C77
:1099600040F05081B80740F16E81002B40F04E82EC
:109970001C46BBF1000FC0F20A827A0700F11A827E
:1099800007F00302022A00F0EA81CDE900475946B8
:109990000A223046FFF7B8FE01352C78002C7FF400
:1099A00079AF337B002B40F01C8105B0BDE8F08F10
:1099B0000D4611F8012B2D2A47F004077FF478AFEC
:1099C00047F001076EE747F002076BE73046FFF705
:1099D0007FFE5BE73268591CB16002F803A0D6E94C
:1099E00001239342FFF449AF3046FFF771FEB3689D
:1099F00043E7D8F800301A1DC8F800206A781C68C0
:109A00002E2A05F101057FF470AF6A78A2F13003C8
:109A1000092B05F101054FF000033FF66AAF03EB98
:109A2000830302EB430315F8012FA2F1300109294A
:109A3000A3F13003F3D95CE7D8F80020111DC8F872
:109A4000001011683046CDE900470A22FFF75CFE9E
:109A50000135A2E7D8F800301A1DC8F8002017F029
:109A60000107D3F800B040F0F080BBF1000F03D045
:109A7000584628F0B5FA0746BC4240F24381002C14
:109A800000F04081202205E0BC4200F03B81002C28
:109A900000F03881B1683368481CB0605A54D6E988
:109AA0000130984204F1FF34EED33046FFF710FE48
:109AB0002022E9E7D8F80020131DC8F80030B36869
:109AC00031681768581C3022B060CA54D6E90123A7
:109AD000934280F0EF803268581C7821B060D154F6
:109AE000D6E901329A4280F0E0800F2F03D93B463D
:109AF0001B090F2BFCD84FF0805406E00F2C4FEAC7
:109B000014137FF649AFB2681C46B7FBF4F319F89B
:109B100003B0BBF10A0F04FB137754D03368511C18
:109B2000B16003F802B0D6E901329A42E6D330467A
:109B3000FFF7CEFDE2E7D8F80020111DC8F80010AD
:109B4000D2F800B08BEAEB72A2EBEB72092A7FF736
:109B500000AFDFF8C8C2012011466329ACFB02E266
:109B600000F101004FEAD202F6DC9842024638BF0B
:109B70001A460292002C45D1F4E6D8F80020111DB7
:109B8000C8F8001011683046CDE900471022FFF7F1
:109B9000BBFD013501E7D8F800301A1DC8F80020D8
:109BA0001C78B3680A2C00F011813268591CB1602E
:109BB000D454D6E901329A42FFF4EEAE3046FFF7B4
:109BC00087FD0135E9E63368511CB16003F802A056
:109BD000D6E901329A42A1D33046FFF779FDB26847
:109BE0009CE7304605B0BDE8F04FFFF771BDB368A4
:109BF0003168581CB060CA54D6E901329A42DDD2AD
:109C00000135CAE6BBF1000F59DB7A0757D4B80714
:109C100002D5002B3FF4ADAEF9073FF5AAAE94B1E3
:109C200020220299A142BFF4A4AEB168481CB060E2
:109C300030684254D6E90101814204F1FF3480F0DA
:109C4000D480002CEDD1002493E69BF80030002B4B
:109C500000F0E080B0685F46CBF101020A2B02EB16
:109C6000070B3CD0411CB16031680B54D6E9013080
:109C7000984226D217F8013F002BEFD15C457FF6C2
:109C80008BAE202702E05C453FF486AEB2683368B5
:109C9000511CB1609F54D6E901329A4204F1FF345D
:109CA000F1D33046FFF714FDEDE73046FFF710FD26
:109CB000B2681AE73046FFF70BFDB3680BE7013CCB
:109CC000A5E730460292FFF703FD17F8013F002B8E
:109CD000D4D0029AB0680A2B02EB070BC2D1411C08
:109CE000B160316801F800A0D6E901108842B9D30B
:109CF0003046CDE90232FFF7EBFCDDE90232B06815
:109D0000B0E770479BF80040002C3FF445AE0A2CAA
:109D1000B0680ED03368421CB2601C54D6E90130E2
:109D2000984214D21BF8014F002C3FF435AE0A2C98
:109D3000F0D13368421CB26003F800A0D6E90130CC
:109D40009842E7D33046FFF7C3FCB068E2E73046FD
:109D5000FFF7BEFC1BF8014F002CD8D11CE6002BEE
:109D60007FF413AE8CB130220299A142BFF40DAE44
:109D7000B168481CB06030684254D6E901018142A4
:109D800004F1FF343BD2002CEED10024FDE5B16894
:109D90004A1CB26032682D205054D6E9012191420C
:109DA000CBF1000BFFF4ECAD30460393FFF790FCD2
:109DB000039BE5E5B1684A1CB26032682B20505421
:109DC000D6E901219142FFF4DBADEDE73268591C81
:109DD000B16002F803A0D6E901239342FFF4E5AE97
:109DE0003046FFF775FCB368DFE630460393FFF7B4
:109DF0006FFC039B2022002C7FF413AF23E7304637
:109E00000393FFF765FC039B3022BCE7F9073FF59E
:109E1000B0AD18E79B4631E7583F0500CDCCCCCC20
:109E2000FFF7F6BB2DE9F041058A0331043D4E19D9
:109E30008046B6FBF5F6FFF707FCA0B3F6B24FF489
:109E40008073013E0446C580C0F8008083802BD01B
:109E50000346002508E06279AE4202F10102627118
:109E60003860C0F800801FD040461F46FFF7ECFB6B
:109E7000013503460028EED16779791E17D02246B6
:109E8000013399421268FBD1D2F800805FB1266895
:109E9000002501E034463668214601354046FFF78B
:109EA000FBFBAF42F6D800242046BDE8F0812068D5
:109EB0002146FFF7F1FBF6E7F8B546790146701E3B
:109EC00013D00A460023013398421268FBD1176869
:109ED00056B10D68002401E029462D68013438464A
:109EE000FFF7DAFBA642F7D8F8BDBDE8F8400868EE
:109EF000FFF7D2BB04300121FFF73EBB2DE9F04153
:109F0000012104460430FFF745FB10F0FF0301D0A8
:109F1000BDE8F0816779791E16D022460133994257
:109F20001268FBD1D2F80080002FF1D026680025FE
:109F300001E034463668214601354046FFF7ACFB68
:109F4000AF42F6D8BDE8F08120682146BDE8F04177
:109F5000FFF7A2BB2DE9F8430546C68840791446B1
:109F600006FB00F2043A04EB030C1F1D624538BFE8
:109F7000D41ABE428846B7FBF6F106FB117002D830
:109F800001392D68FCD1371AA74228BF27469CB15A
:109F90004FF000090430E41B28443A4608EB09015D
:109FA00027F00CFFA642B9442D6837464FF0000059
:109FB00028BF2746002CEDD1BDE8F8832DE9F843F2
:109FC0000546C6884079144606FB00F2043A04EBC5
:109FD000030C1F1D624538BFD41ABE428846B7FB2A
:109FE000F6F106FB117002D801392D68FCD1371A41
:109FF000A74228BF27469CB14FF00009043029181A
:10A00000E41B3A4608EB090027F0D8FEA642B94403
:10A010002D6837464FF0000028BF2746002CEDD1B1
:10A02000BDE8F88333DF704741DF7047064A074BCE
:10A0300010B5002414701C60BFF35F8F04490548FD
:10A0400000F084F8204610BD654E0020684E0020C8
:10A05000743F05005C4E002008B506F09FFA18B961
:10A0600020BF40BF20BF08BDBDE80840FFF7DCBFF0
:10A07000F8B5294D044601212846FFF737FABFF30A
:10A080005F8FD8B9042C41D0244B1A786ABB244E78
:10A09000012234701A70234C636883B1274603E0B1
:10A0A00000F05EF8636853B11B6830789847034648
:10A0B0003846002BF4D1BFF35F8F2B60F8BDFEF75D
:10A0C0009DFAFDF71FFA0028FBD13378023B012BE4
:10A0D0000FD906F063FAD8B94FF080430122C3F8D4
:10A0E0000025BFF34F8F20BFFDE7BFF35F8F2860D0
:10A0F000F8BDBFF34F8F0C490C4BCA6802F4E06205
:10A100001343CB60BFF34F8F00BFFDE7044EC2E7A0
:10A11000FFF788FFE0E700BF684E0020654E002093
:10A12000644E00205C4E002000ED00E00400FA05C3
:10A130008268002393608268136182685361826839
:10A14000D3608268536082681360704701600B6857
:10A1500043604A68934204BF00234360704700BFD6
:10A16000436843B1026891680B444360526893426C
:10A1700004BF00234360704770B5446806462068FA
:10A180000D4618B908E02468206828B1B36829464C
:10A1900098470028F7D120682860256070BD00BF6F
:10A1A0004368186808B102681A6070474368186805
:10A1B000704700BF4368186818B908E00346006894
:10A1C00028B18142FAD10A681A60012070477047AD
:10A1D000114910B4A1F5947205E052F83330984259
:10A1E00038BF21460CD28C1AE30F03EBE4035B105B
:10A1F000914202EBC304F0D808485DF8044B704765
:10A2000002D904F10802EEE76068044B5DF8044BE4
:10A21000002808BF18467047B4440500784305007D
:10A22000F0B5044683B000250DF107000E468DF809
:10A230000750FEF797FE2368A26818685968914294
:10A2400038BF4D1CA84212D0586859688A420BD8B2
:10A2500000225A60E268531E072B19D8DFE803F08A
:10A260004540183B1818183301315960F2E7217C3A
:10A27000002941D158685D68AA423AD859602268DD
:10A28000A16813688B4234BF013300231360E1E7F8
:10A290006368314600FB023027F090FD22681368A6
:10A2A00051688B4282BFA06801300918CB1A9168AF
:10A2B0009DF80700994238BF9360FEF779FE0024AD
:10A2C000204603B0F0BD6368D6E9006703EBC00029
:10A2D000C0E90067E2E76368326843F82020DDE701
:10A2E0006368328823F81020D8E7636832781A54FC
:10A2F000D4E701355D60C2E79DF80700FEF758FE20
:10A300000424204603B0F0BD70B5044682B000239B
:10A310000DF107000D468DF807301646FEF722FEB8
:10A32000236818685968884211D019682EB91A68CC
:10A33000A068824238BF561C1E60E268531E072B7D
:10A340000DD8DFE803F0411A0C260C0C0C329DF8F6
:10A350000700FEF72DFE0524204602B070BD63689D
:10A36000284601FB023127F029FD9DF80700FEF782
:10A370001FFE0024204602B070BD63689DF80700F0
:10A3800033F811302B80FEF713FE0024204602B074
:10A3900070BD63689DF8070053F821302B60FEF70D
:10A3A00007FE0024204602B070BD63689DF80700D8
:10A3B00003EBC101D1E90023C5E90023FEF7F8FD55
:10A3C0000024204602B070BD63689DF807005B5C06
:10A3D0002B70FEF7EDFD0024204602B070BD00BFDB
:10A3E000036818685B68C01AB0FA80F040097047CB
:10A3F000BFF34F8F0549064BCA6802F4E06213436E
:10A40000CB60BFF34F8F00BFFDE700BF00ED00E062
:10A410000400FA0510B5A14B1B685A1C00F0CA8055
:10A420009F4A082B126832D09C4B1B68082B00F007
:10A430008380581C24D09A4A1268082B00F0DC80D4
:10A44000984AD2F8883043F47003C2F88830BFF3DA
:10A450004F8FBFF36F8F4FF01023D3F80C22D2072A
:10A4600000F1FE80D3F80022002AC0F2D380D3F896
:10A470000432002BC0F2CE808B4B8C4A1A6010BD88
:10A480008B4A8C4B12681B78C2F30312D5E7032A60
:10A4900040F2A380824A1268082BC5D1032AC3D890
:10A4A0004FF08052844BD2F80414C3F82015D2F830
:10A4B0000814C3F82415D2F80C14C3F82815D2F8E0
:10A4C0001014C3F82C15D2F81414C3F83015D2F8B0
:10A4D0001814C3F83415D2F81C14C3F84015D2F878
:10A4E0002014C3F84415D2F82414C3F84815D2F840
:10A4F0002814C3F84C15D2F82C14C3F85015D2F810
:10A500003014C3F85415D2F83414C3F86015D2F8D7
:10A510003814C3F86415D2F83C14C3F86815D2F89F
:10A520004014C3F86C15D2F84424C3F870255B4B73
:10A530001B68082B7FF47DAF594B1A68032A3FF63E
:10A540007FAF5E4B9B5C13B15D4B5E4919605E4B08
:10A550009B5C6BB1514B5D491B68514AFB20C1F8B4
:10A560001805082B12687FF464AF032A3FF668AF22
:10A57000574B9B5CA3B1574B574C19682068484A0E
:10A58000A3F5947320F00F001B68126801F00F010F
:10A590000143082B21607FF44CAF032A3FF650AFF4
:10A5A0004E4B9B5C5BB33D4B4D4A1B684FF40071B7
:10A5B00011603EE73F4A3E4B12781B68082A4FEA7B
:10A5C00013137FF431AF13F00C0F06D0384A394B18
:10A5D00012681B78C2F303125EE7304B1B684FF022
:10A5E000804200215C1CC2F80C11C2F81011C2F8A4
:10A5F00038157FF44FAFE9E7032A3FF621AF4FF05C
:10A600008043D3F80024D10744BF6FF00102C3F8A0
:10A61000002415E7334A0123C2F80435D2F8003488
:10A62000002BFBD04FF0102312212E4AC3F800124A
:10A63000D2F80034002BFBD04FF010231221294A0E
:10A64000C3F80412D2F80034002BFBD000232549B4
:10A65000C2F80435D1F80034002BFBD0FFF7C8FE58
:10A66000204B0122C3F80425D3F80024002AFBD094
:10A670004FF010211B4AD1F80C3223F00103C1F82E
:10A680000C32D2F80034002BFBD000231549C2F85D
:10A690000435D1F80034002BFBD0DFE73001001087
:10A6A0003401001000ED00E0043E00200090D003D3
:10A6B000E80F00F0E00F00F000C00040B4440500D7
:10A6C0008C56004048810300B444050000F000406F
:10A6D000B444050058020010E40E0040B4440500E4
:10A6E0004096024000E0014042DF704743DF704780
:10A6F00044DF704710B568B90E4CA3680122627040
:10A700003BB1D3E900230020A2609847A368002B47
:10A71000F7D110BD0128FCD1064C2369A070002B95
:10A72000F7D0D3E900230120226198472369002B49
:10A73000F7D110BD6C4E002070B910B5074CA3685E
:10A74000012262703BB1D3E900230020A260984748
:10A75000A368002BF7D110BD704700BF6C4E0020DE
:10A7600030B5012883B004D0032821D0B0B103B0A4
:10A7700030BD294C00230DF107008DF80730FEF79E
:10A78000F1FB23786BB3E3689DF8070001330122E6
:10A79000E360A270FEF70CFC03B030BD1F4B01223A
:10A7A000C3F88020BFF34F8FBFF36F8F03B030BD6E
:10A7B000194C00F047F900230DF107008DF8073020
:10A7C000FEF7D0FBE368013BE360E3681BB9144B81
:10A7D000D3F80054C5B19DF80700FEF7E9FB03B0BC
:10A7E00030BD10486360A3602361E36000F01EF990
:10A7F00005F0D4FE60B10A4A01232370D2F8002488
:10A80000002AC0D0A370BEE700F02EF9A570E2E7E1
:10A8100000F018F9EFE700BF6C4E002000E100E007
:10A8200000000140F5A6020030B51D4D6B7883B0E5
:10A8300004469BB110B143680020984700230DF1F6
:10A8400007008DF80730FEF78DFB6B689DF8070059
:10A8500001336B60FEF7ACFB03B030BD03F0FF02C9
:10A860000DF107008DF80720FEF77CFB64B1AA68A4
:10A8700042B1944208D0134601E09C4204D01B68C8
:10A88000002BFAD12260AC606B68002BDDD105F0A3
:10A8900085FE10B900F004F9D7E7FFF725FFD4E7EC
:10A8A0006C4E002070B5154C82B000230DF10700EE
:10A8B0008DF80730FEF756FB6368013B63606568FF
:10A8C0002DB19DF80700FEF773FB02B070BD05F0D7
:10A8D00065FE064640B900F0F5F89DF80700667081
:10A8E000FEF766FB02B070BDFFF700FF9DF80700A2
:10A8F0006570FEF75DFB02B070BD00BF6C4E0020BE
:10A9000000B583B005F04AFE68B94FF08043D3F834
:10A910000C0400F00110A0F10110B0FA80F0400921
:10A9200003B05DF804FB01A8FFF7E2FE01980038D0
:10A9300018BF012003B05DF804FB00BF30B585B03F
:10A94000047845688DF80040D0E90240064A074B7C
:10A95000039053F82130019552F821108DF80840EA
:10A960006846984705B030BD804E0020884E0020D4
:10A9700030B585B0047845688DF80040D0E90240D4
:10A98000064A074B039053F82130019552F82110E5
:10A990008DF808406846984705B030BD804E0020CD
:10A9A000884E00202DE9F047DFF8748090F800E031
:10A9B0004B7F08F80E300D46074616460FCD88B07F
:10A9C0006C460FC495E80F003D78DFF85890DFF82B
:10A9D00058C018F8055049F82E6084E80F004CF86C
:10A9E0002E00CDF810E05DB1002E0B4A694607F14C
:10A9F000040008BF324601F003FB08B0BDE8F08751
:10AA0000002E064A694607F10C0008BF324600F0E6
:10AA100007FF08B0BDE8F0873DA9020071A9020058
:10AA2000B02C0320884E0020804E0020044A137969
:10AA300023B9012110609180184670478520704726
:10AA4000904E0020074B1A68D20704D4C02283F826
:10AA5000002301221A604FF080430122C3F8182519
:10AA6000704700BF00E100E010B40B4B0B494FF002
:10AA7000804200200224C2F8084383B018601B689B
:10AA80000193012301980B60D2F81834DB03FBD447
:10AA900003B05DF8044B7047040100400C00004017
:10AAA000074B00221A6082B01B68019301994FF096
:10AAB00080430122C3F804231A6002B0704700BF2C
:10AAC0000001004010B40E490E484FF080420123AF
:10AAD0000024C2F8083383B00C6009680191019921
:10AAE0000360D2F80C3403F00113B3F1011FF8D066
:10AAF000054B00225A7103B05DF8044B704700BF4C
:10AB00000001004004000040904E002010B5174B9B
:10AB10001A6882B062B10021154A19601B68507929
:10AB200000934FF080410123009CC1F8083398B195
:10AB3000104B1A68BAB100221A601B6801934FF0DB
:10AB4000804202210A4B0198C2F808131B680120B9
:10AB500002B0BDE810401847116853718847054B93
:10AB60001A68002AE7D102B010BD00BF0001004002
:10AB7000904E002004010040F0B5264C94F86A3055
:10AB800083B0002B42D14FF6FF70FF255A09012AEE
:10AB90000CBF02464FF0FF3203F01F01CA40D2073C
:10ABA00048BFE21803F1010348BF82F83050302B50
:10ABB000ECD14FF0FF334FF0FF364FF0FF37062256
:10ABC000002115482366C4E90233C4E90433C4E90B
:10ABD0000633C4E90833C4E90A33C4E9006727F03F
:10ABE00015F90E4BC02283F8062340221A600C4B45
:10ABF0000C4A002018601B68019301214FF00043AC
:10AC0000019D84F86A10C2F8043300E0082003B004
:10AC1000F0BD00BF984E0020FC4E002000E100E097
:10AC20007C61004000600040034B93F86A000038EC
:10AC300018BF0120704700BF984E0020F0B4754B3C
:10AC40001D1895F93040002C61DA8C78A707C4F301
:10AC5000400C53D41C6A013400F0D5805C6A013486
:10AC600000F0CA800C260A2453F82450013552D033
:10AC7000651CB5423FD253F82570013700F0B4800F
:10AC8000A51CB54237D253F82570013700F0AC80CF
:10AC9000E71CB7422FD253F8275001353AD0271D71
:10ACA000B74228D253F82750013533D0671DB74239
:10ACB00021D253F8275001352CD0A71DB7421AD204
:10ACC00053F82750013525D0E71DB74213D253F86A
:10ACD000275001351ED004F10807B7420BD253F8B4
:10ACE0002750013516D00934B44204D2DC6A01344D
:10ACF00008BF0B240FD00420F0BC70471C6801343F
:10AD000074D05C6801346DD008260224ACE70820BA
:10AD1000F0BC70473C461E1865B243F8242086F804
:10AD20003050BCF1000F02D11C4484F858008A78DE
:10AD300054071AD4D60744D41F284C7887BF364E00
:10AD400000F01F0202464FF0A04602F5E072A40098
:10AD500046F82240314EC40800F0070C375D01224E
:10AD600002FA0CF23A4332558A7812F002021CD0F1
:10AD7000AB0003F1804303F5C0430978D3F81045D5
:10AD800024F44F3424F44074C3F81045020209043B
:10AD9000D3F8100501F4403102F47C520A43024317
:10ADA000C3F810250020F0BC7047083D2B440878FC
:10ADB00093F8601041EA801183F860101046F0BCEF
:10ADC00070471F2887BF144A00F01F0404464FF045
:10ADD000A04202EB8402D2F8004724F00204C2F839
:10ADE0000047B7E7012496E72C4694E7002485F84E
:10ADF00030401A6025469AE7092685F830605A6285
:10AE00003446354690E7082685F830601A623446A5
:10AE1000354689E7984E002000030050FC4E002084
:10AE200070B4324C251883B095F93030072B22DDF1
:10AE3000234493F858309B09032B46D0012B0CBFB9
:10AE40004FF400324FF440321F288ABF284B4FF096
:10AE5000A04300F01F0003EB8000D0F8003723F47C
:10AE60004033C0F80037D0F800371A43C0F8002745
:10AE700003B070BC7047DAB2072AF9D8980000F125
:10AE8000804000F5C04003F140029200D0F8106508
:10AE900092B202F1804202F5C04246F00106C0F8CB
:10AEA00010650020106012680192019A0029DFD01D
:10AEB00095F9302054F82220002AD9D00D490122DA
:10AEC00002FA03F3C1F80433D2E71F288ABF084A05
:10AED0004FF0A04200F01F03D2F8102598BF0346A0
:10AEE000DA4002F0010202321204ADE7984E00206F
:10AEF0000003005000600040F0B4404D2B1893F95F
:10AF00003030072B43DD1F2887BF3D4A00F01F016B
:10AF100001464FF0A04202EB8102D2F8001721F463
:10AF20004031C2F80017D2F80017C2F800173549AF
:10AF3000C40800F007020C5D012606FA02F2144272
:10AF400001EBD00150D01F288BBF00F01F03034638
:10AF50002B4C4FF0A04403F5E073022644F8236025
:10AF60000C782B1824EA02020A7093F830304FF064
:10AF7000FF32072B45F8232003D92B44FF2283F807
:10AF800058202844FF2380F83030F0BC7047DEB2F0
:10AF9000072ECCD89C0004F1804404F5C044012263
:10AFA000D4F81015DFF860C002FA03F321F00101B4
:10AFB000C4F810150027CCF8083305F16401C30864
:10AFC000C4F81075CB5C00F00704A240134201EBFB
:10AFD000D001B8D14FF0FF33284445F82630FF2385
:10AFE00080F83030F0BC7047DBB24FF0FF3245F8EC
:10AFF00023202B44FF2283F85820C2E7984E0020DC
:10B0000000030050FC4E0020006000402DE9F0419C
:10B010000024284DDFF8A0806309012B05F16407A7
:10B020004FF0FF3613D104F01F024FF6FF73D340E9
:10B03000DB0706D5291991F93030981C11D0002B67
:10B040002DDA2F2C30D001346309012BEBD026FAF6
:10B0500004F3DB07F7D52919224691F93030981C03
:10B06000EDD1FF23E00881F83030395C04F0070CA3
:10B07000012303FA0CF31942E3D0202C38BF2246F7
:10B0800002F5E07234BF4FF0A04141464FF0020C90
:10B0900041F822C03A5C22EA03033B54D1E7204640
:10B0A000FFF72AFF2F2CCED1002385F86A30BDE8A8
:10B0B000F08100BF984E0020000300502DE9F047BA
:10B0C000002384B0CDE90233D54A1168012900F08C
:10B0D00040821E46D34B1A68012A00F02C82D24BC4
:10B0E0001A68012A00F01982D04B1A68012A00F070
:10B0F0000682CF4B1A68012A00F0F381CD4B1A6803
:10B10000012A00F0E081CC4B1A68012A00F0CD81C1
:10B11000CA4B1A68012A00F0A181C94B1A68012A9A
:10B1200020D0E6B1C74F00240125A30003F18043DE
:10B13000354203F5C0434FEA45050BD0D3F810055F
:10B1400057F82420D3F81015C0F30520C1F30141AE
:10B1500002B190470134082CE7D1002E17DB04B070
:10B16000BDE8F08700221A601B6801934FF0A042EF
:10B17000019BD2F82015B44B0291C2F82015D3F8E8
:10B1800020250392C3F82025002E40F08B81AD4C82
:10B19000AD4E01254FF0A04794F96000431C46D006
:10B1A000C0F3C20204AB1A4400F0070312F8082CE3
:10B1B00005FA03F31A42C1B200F03F0037D01F284E
:10B1C00000F2258102464FF0A04909EB820304EB0F
:10B1D000000ED3F800C7D3F8008728F44038C3F82E
:10B1E0000087CCF3014C9EF93080D3F800E754F887
:10B1F0002880BCF1020F0CBF4FF4403A4FF4003AE4
:10B2000005FA02F24EEA0A0EC3F800E7C9F8202553
:10B21000B8F1000F0BD08909032900F0B381BCF10C
:10B22000020F00F0BE81BCF1030F00F0A88194F979
:10B230006100411C46D0C0F3C20204AB1A4400F0C6
:10B24000070312F8082C05FA03F31A42C1B200F002
:10B250003F0037D01F2800F2DE8002464FF0A049A1
:10B2600009EB820304EB000ED3F800C7D3F8008784
:10B2700028F44038C3F80087CCF3014C9EF93080A5
:10B28000D3F800E754F82880BCF1020F0CBF4FF44C
:10B29000403A4FF4003A05FA02F24EEA0A0EC3F8B9
:10B2A00000E7C9F82025B8F1000F0BD08909032960
:10B2B00000F06D81BCF1020F00F06B81BCF1030F57
:10B2C00000F0628194F96200421C46D0C0F3C202D1
:10B2D00004AB1A4400F0070312F8082C05FA03F334
:10B2E0001A42C1B200F03F0037D01F2800F2AE80F2
:10B2F00002464FF0A04909EB820304EB000ED3F89D
:10B3000000C7D3F800879EF930E028F44038C3F82E
:10B310000087CCF3014CD3F800A754F82E80BCF181
:10B32000020F0CBF4FF4403E4FF4003E05FA02F20C
:10B330004EEA0A0EC3F800E7C9F82025B8F1000F5D
:10B340000BD08909032900F01381BCF1020F00F032
:10B350002481BCF1030F00F0088194F96300431CC1
:10B3600045D0C0F3C20204AB1A4400F0070312F840
:10B37000082C05FA03F31A42C1B200F03F0036D0A0
:10B380001F2867D802464FF0A04909EB820304EB5F
:10B39000000ED3F800C7D3F800879EF930E028F4F8
:10B3A0004038C3F80087CCF3014CD3F800A754F819
:10B3B0002E80BCF1020F0CBF4FF4403E4FF4003E14
:10B3C00005FA02F24EEA0A0EC3F800E7C9F8202592
:10B3D000B8F1000F0BD08909032900F0CE80BCF131
:10B3E000020F00F0E280BCF1030F00F0C380D7F839
:10B3F00020250292C7F82025D6F820350393C6F8F9
:10B40000203513437FF4C8AE04B0BDE8F08701F0E7
:10B410001F02B146D9E601F01F02B14620E700BF86
:10B420000061004004610040086100400C61004080
:10B430001061004014610040186100401C61004030
:10B440007C610040984E00200003005001F01F0274
:10B45000B14650E701F01F02B14696E7554AD2F8CF
:10B46000042312067FF559AE00221A601968009174
:10B47000196E0098012903F1600346F080067FF4FD
:10B4800050AE1A601B6801934FF0A042019BD2F8A6
:10B490002015494B0291C2F82015D3F820250392BC
:10B4A000C3F8202546F000463CE6424AD2F8042381
:10B4B00051067FF52DAE00221A601B680093009B99
:10B4C00046F0400624E63B4AD2F8042390067FF576
:10B4D0001AAE00221A601B680093009B46F02006FB
:10B4E00011E6344AD2F80423D4067FF507AE0022D1
:10B4F0001A601B680093009B46F01006FEE52D4A7B
:10B50000D2F8042315077FF5F4AD00221A601B68FA
:10B510000093009B46F00806EBE5264AD2F8042388
:10B5200057077FF5E1AD00221A601B680093009B6E
:10B5300046F00406D8E51F4AD2F8042392077FF5A7
:10B54000CEAD00221A601B680093009B46F00206F5
:10B55000C5E51849D1F8046316F001063FF4BAAD09
:10B56000136013680093009BB4E502297FF4F5AEE5
:10B57000C047F2E602297FF43AAFC04737E7022915
:10B580007FF455AEC04752E602297FF49BAEC04718
:10B5900098E601297FF496AEF9E701297FF4DDAE44
:10B5A000E6E701297FF443AEECE701297FF41FAF02
:10B5B000E3E700BF0060004000030050014B1B6840
:10B5C000184700BF044F0020014B1B68184700BFFD
:10B5D0000C4F002070B5144B984282B00D4621D01C
:10B5E000A3F50433984210D1104E00230DF107004B
:10B5F0008DF80730FDF7B6FC34794CB19DF80700A3
:10B60000FDF7D6FC112002B070BD002002B070BD65
:10B6100001239DF8070035603371FDF7C9FC204612
:10B6200002B070BD024EE0E7003002400C4F002037
:10B63000044F0020064B984208D0A3F504339842EB
:10B6400003D1044A0023136013717047024AF9E7DB
:10B65000003002400C4F0020044F002030B56E4AED
:10B66000D2F8043399058BB068D5D2F82431002B79
:10B6700064D00023C2F82431D2F8243101934FF46E
:10B680000171664B0198C2F8081393F8291009B9A3
:10B6900001215160604902228DF81820D1F88024E0
:10B6A000C1F880249869D968099200240025CDE961
:10B6B0000710C3E90645D3E9001206A89047564A89
:10B6C000D2F81C31C3B1554B5869196A88426AD9FE
:10B6D00093F8281001F0FF00002964D1C2F81C0182
:10B6E000D2F81C11039103999C68186A196A205CAE
:10B6F00001311962C2F81C05474AD2F84431DBB166
:10B700000021464BC2F84411D2F8440193F82910A5
:10B710000090009809B1012111609A6962B1586ADC
:10B72000D96800229A610122CDE907108DF818200E
:10B7300006A8D3E9001290470BB030BD364AD2F8C4
:10B7400004335B07BBD5D2F80831002BB7D0334B9D
:10B75000996900293ED00021C2F80811D2F80811D9
:10B7600004910499D868596AD2F8182542545A6A43
:10B77000996901325A625A6A8A42A0D1DA69002A6A
:10B7800031D0DD685C6A18699A6101210022D860B5
:10B79000DA615A628DF81810CDE90754D3E9001226
:10B7A00006A890478BE71C4A0021C2F81C11D2F86A
:10B7B0001C210292029A5A69002A9DD058699A68FF
:10B7C0008DF8181008905961079206A8D3E9001265
:10B7D000904791E7C2F80811D2F808010590059842
:10B7E000D2F81825C7E793F8292012B90A4A01218F
:10B7F0005160094A4FF40171C2F80813596ADA68B6
:10B8000008910024012007928DF81800D3E9001256
:10B810009C6106A8904752E700200040184F002086
:10B820002DE9F041DFF8E48106792C2303FB068340
:10B8300082B093F82A30002B40F09E8005460C46DB
:10B8400000686D491746FFF7C5FE002840F090805C
:10B850002368591C19D01F2B4FF001028ABF67497A
:10B860004FF0A04103F01F0302FA03F3C1F80835BB
:10B8700023681F2B86BF03F01F03604A4FF0A042CE
:10B8800003F5E073032142F8231063685A1C0BD0C0
:10B890001F2B86BF03F01F03584A4FF0A04203F549
:10B8A000E073002142F823102B68A269C3F8242515
:10B8B000217D637D2A680B43C2F86C35D4E9001200
:10B8C0002B68C3F81425C3F80C15237D012B5FD01A
:10B8D0002C2303FB06F308EB03025760226948F8A8
:10B8E00003202A6897B30021237FC2F81C11D2F8E5
:10B8F0001C2100922A68009FC2F84411D2F844111A
:10B900002A6801913E4C0199C2F804432A6842F327
:10B91000073100294FEA123232DB01F1604101F5B3
:10B9200061415B01DBB281F800332A6842F30733DF
:10B93000002B4FEA123109DB324C01225B0901F086
:10B940001F0102FA01F144F823102A682C2303FB9B
:10B950000686012400230421C2F80015C6E9063337
:10B9600086F82A4086F82930736102B0BDE8F0817C
:10B97000112002B0BDE8F081082002B0BDE8F081DE
:10B98000214902F00F025B011144DBB20B76CCE7D8
:10B99000A368591C0BD01F2B86BF03F01F03174948
:10B9A0004FF0A04103F5E073002241F82320E36843
:10B9B0005A1C1AD01F2B8ABF10494FF0A04103F028
:10B9C0001F03012202FA03F3C1F80835E3681F2BB5
:10B9D00088BF03F01F0303F5E0738CBF07494FF0E6
:10B9E000A041032241F82320E3682A68A168C2F835
:10B9F0000835C2F810156BE75DB602000003005071
:10BA00008000020000E100E0FCEC00E0184F0020A4
:10BA1000F8B53E4F047902682C2303FB0473002120
:10BA20005B68C2F80015C3B10368394AC3F808233C
:10BA3000036843F30732002A4FEA13310EDB520941
:10BA4000344D2032012301F01F0103FA01F145F8C2
:10BA50002210BFF34F8FBFF36F8F0368D3F80C65CD
:10BA6000D3F81455D3F80825D3F810154FF0FF3C40
:10BA7000C3F814C5C3F80CC503686645C3F808C508
:10BA8000C3F810C50CD01F2E86BF06F01F06224B30
:10BA90004FF0A04306F5E0764FF0020C43F826C0C5
:10BAA0006E1C0BD01F2D86BF05F01F051A4B4FF0E3
:10BAB000A04305F5E075022643F825604D1C0BD028
:10BAC0001F2986BF01F01F01134B4FF0A04301F562
:10BAD000E071022543F82150531C0BD01F2A86BF6A
:10BAE00002F01F020C4B4FF0A04302F5E07202215E
:10BAF00043F822100068FFF79DFD2C2303FB04741C
:10BB0000002384F82A306360F8BD00BF184F00207E
:10BB10008402020000E100E0000300502DE9F04142
:10BB2000314E05792C2303FB05630446586984B024
:10BB300000284CD15A619960186283F82800226865
:10BB4000C2F81C01D2F81C11226802910121029F47
:10BB500091602268D3F808C0C2F81C01D2F81C1109
:10BB6000019101991F6A196A1CF807700131196265
:10BB7000C2F81C755A6812B104B0BDE8F0815F6963
:10BB80001A6A216897421BD9864602E093F828205A
:10BB90000ABBD1F81C21002AF8D0C1F81CE1D1F869
:10BBA0001C210392039AD3F820801A6A1CF808809B
:10BBB00001321A62C1F81C851A6A9742E9D82168D5
:10BBC000D1F81C31002BFBD00123CB6004E0112005
:10BBD00004B0BDE8F0810F202C2303FB0565002392
:10BBE0006B6104B0BDE8F081184F00200379044A6E
:10BBF0002C2101FB03235869003818BF012070472E
:10BC0000184F0020F0B4504F06792C2303FB067325
:10BC100086B05D68044625B103684FF40170C3F82F
:10BC200008032C2303FB0673986990B1D869002898
:10BC30007CD11961DA612C2303FB06735A683AB38D
:10BC400023684FF40172C3F80423002006B0F0BC4F
:10BC5000704793F829509A61D9605862D861002DD5
:10BC6000E9D12368C3F82451D3F824212368019231
:10BC7000019AC3F80851D3F80821236802920122DF
:10BC800002991A602C2303FB06735A68002AD7D145
:10BC90002168C1F84421D1F844210392039A226813
:10BCA000D2F82411D2F80851D2F8440155B900282D
:10BCB00033D10029F4D02C2303FB06760023B36193
:10BCC0000320C3E70029F6D148BB9969C2F80801EF
:10BCD00081B1D2F8081104910499DD68596AD2F84B
:10BCE00018256A545A6A996901325A625A6A91420D
:10BCF000D5D806E0D2F8081105910599D2F8182593
:10BD00005B6A2C2303FB0676002296F82930B26189
:10BD1000A3B1236801221A6098E70029CBD12C2314
:10BD200003FB06760023B3610F208FE755B123682C
:10BD30004FF40172C3F80423112087E7236801221E
:10BD40005A6083E7112081E7184F002030B5524B2D
:10BD5000D3F824218BB0002A71D00021C3F824111C
:10BD6000D3F82421049202228DF81820049AD3F8E3
:10BD700080044A4AC3F880040990D3F83C05136B49
:10BD80000890C2E90F11079306A8D2E90913984752
:10BD9000414BD3F8442152B1404A0021C3F8441129
:10BDA000D3F84441D06B0394039C002838D13A4B1C
:10BDB000D3F820215AB10021C3F82011D3F8202153
:10BDC00002920120354A029CD860906BD8B9324B60
:10BDD000D3F85821AAB10021C3F85811D3F858015B
:10BDE0002E4A01900198906B58B1D3F84C05D36A54
:10BDF00008908DF818109163079306A8D2E90913EB
:10BE000098470BB030BDD3F84C05D36A08908DF835
:10BE100018109163079306A8D2E909139847D6E74B
:10BE2000D3F83C35106B08930123C2E90F1107903A
:10BE30008DF8183006A8D2E909139847B7E7D3F868
:10BE400010110029A4D0C3F81021D3F81001134910
:10BE500005900598CC6BD3F83C05A04298D10C6CAA
:10BE60005CB90A6BCC63CDE9072001238DF818304B
:10BE7000D1E9091306A898478AE7D3F80052CC63A2
:10BE80000C6B0A6425F020054A6BC3F80052CDE91B
:10BE9000074001230A63E9E700800240444F002085
:10BEA00030B5554BD3F824218BB0002A71D0002136
:10BEB000C3F82411D3F82421049202228DF818200B
:10BEC000049AD3F880044D4AC3F880040990D3F84B
:10BED0003C05D3680890C2E90611079311685368BE
:10BEE00006A89847444BD3F8442152B1434A002155
:10BEF000C3F84411D3F8444190690394039C00288B
:10BF000038D13D4BD3F820215AB10021C3F820117C
:10BF1000D3F8202102920120384A029CD86050694F
:10BF2000D8B9354BD3F85821AAB10021C3F858111C
:10BF3000D3F85801314A01900198506958B1D3F8AB
:10BF40004C05936808908DF818105161079306A866
:10BF5000D2E9001398470BB030BDD3F84C05936875
:10BF600008908DF818105161079306A8D2E90013C4
:10BF70009847D6E7D3F83C35D06808930123C2E947
:10BF8000061107908DF8183006A8D2E900139847DB
:10BF9000B7E7D3F810110029A4D0C3F81021D3F8C3
:10BFA00010111648059105998469D3F83C15A142F2
:10BFB00098D1C469A4B1D3F80052846125F020055A
:10BFC000C3F80052D0E90343C26101220891C36063
:10BFD0000168436807948DF8182006A8984781E700
:10BFE000C26884610123CDE907218DF81830D0E9BA
:10BFF000001306A8984775E700200040444F002032
:10C000002DE9F0430679834F06EBC60307EB830364
:10C0100087B093F82030002B40F0BB807E4B044665
:10C020000D46006853F826109046FFF7D3FA002813
:10C0300040F0AB802B68591C4FEAC60919D01F2B62
:10C040004FF001028ABF75494FF0A04103F01F0372
:10C0500002FA03F3C1F808352B681F2B86BF03F0E3
:10C060001F036E4A4FF0A04203F5E073032142F82C
:10C0700023106B685A1C0BD01F2B86BF03F01F03C5
:10C08000664A4FF0A04203F5E073002142F8231006
:10C090002368AA69C3F82425297D6A7D23680A4399
:10C0A000C3F86C25D5E900312268C2F80C35C2F816
:10C0B00014152B7D012B78D009EB060207EB8203C8
:10C0C000C3F804802B6947F82230B8F1000F4BD039
:10C0D00021682B7F524D0022C1F81021D1F8101198
:10C0E00001912168DDF804C0C1F82021D1F82011A8
:10C0F00002912168DDF808C0C1F82421D1F824118B
:10C1000003912168DDF80CC0C1F84421D1F8441135
:10C1100004912168DDF810C0C1F85821D1F85811F8
:10C12000226805910599C2F80453226842F3073149
:10C1300000294FEA123230DB01F1604101F5614123
:10C140005B01DBB281F80033226842F30733002B36
:10C150004FEA123109DB334D01225B0901F01F0167
:10C1600002FA01F145F8231022684E4407EB8607D6
:10C17000002301240821C2F80015C7E9063387F817
:10C1800020407B6107B0BDE8F083112007B0BDE817
:10C19000F083082007B0BDE8F083234902F00F02C6
:10C1A0005B011144DBB20B76CEE7AB68591C0BD0B8
:10C1B0001F2B86BF03F01F0318494FF0A04103F562
:10C1C000E073002241F82320EB685A1C1AD01F2B81
:10C1D0008ABF12494FF0A04103F01F03012202FA67
:10C1E00003F3C1F80835EB681F2B88BF03F01F036A
:10C1F00003F5E0738CBF09494FF0A041032241F8D9
:10C200002320EB682268A968C2F80835C2F8101527
:10C2100052E700BF444F0020E444050000030050F3
:10C220001003420000E100E0FCEC00E02DE9F041E9
:10C230000579564C05EBC50304EB830301465B68A7
:10C24000006882B0EE00C3B1514BC0F808330B68F0
:10C2500043F30732002A4FEA13330EDB5209DFF8AB
:10C2600038C12032012703F01F0307FA03F34CF80B
:10C270002230BFF34F8FBFF36F8F721904EB82022E
:10C28000D0F80032926923F02003C0F8003242B1A6
:10C290000023C0F84431D0F8443100930123009AC0
:10C2A00043600023C0F85831D0F858310193731916
:10C2B000012204EB8303019FC2609A69D0F85831D0
:10C2C000002BFBD01AB1D0F84431002BF6D000235C
:10C2D000C0F800350B684FF0FF38D3F80CE5D3F801
:10C2E00014C5D3F80825D3F81075C3F80C85C3F826
:10C2F00014850B68C645C3F80885C3F810850CD0B3
:10C30000BEF11F0F86BF0EF01F0E22494FF0A04155
:10C310000EF5E07E022341F82E30BCF1FF3F0CD039
:10C32000BCF11F0F86BF0CF01F0C1A494FF0A04143
:10C330000CF5E07C022341F82C30791C0BD01F2F28
:10C3400086BF07F01F0713494FF0A04107F5E077BC
:10C35000022341F82730531C0BD01F2A86BF02F05E
:10C360001F020C494FF0A04102F5E072022341F890
:10C370002230FFF75FF9354404EB8504002384F88D
:10C380002030636002B0BDE8F08100BF444F002060
:10C39000100342000003005000E100E0F0B401F09F
:10C3A0006044B4F1005F82B02CD10579274E05EBD3
:10C3B000C50406EB840403466069EF0000283ED103
:10C3C0006261A1601A68C2F82001D2F820C11A681F
:10C3D000CDF804C0DDF804C0C2F85801D2F85821E5
:10C3E00000921A68DDF800C0D4F814C0C2F84415F1
:10C3F000C2F848C51A6801219160626832B102B082
:10C40000F0BC7047102002B0F0BC70471A6800E022
:10C41000C8B9D2F82011D2F858010029F8D090B943
:10C420000121D1601B68D3F85821002AFBD07B1969
:10C4300006EB830300225A6102B0F0BC7047112062
:10C4400002B0F0BC70470F20F1E700BF444F00205E
:10C450000379054A03EBC30302EB830358690038F1
:10C4600018BF0120704700BF444F002001F0604317
:10C47000B3F1005F5ED1F0B40479474D04EBC4061C
:10C4800005EB860682B07668E30026B107684FF4B4
:10C49000047CC7F808C3234405EB83039C694CBBA9
:10C4A0009A61DC61D9600368C3F81041D3F8106168
:10C4B00003680196019EC3F84441D3F844410368E0
:10C4C0000094009CC3F83415C3F838250368012292
:10C4D0001A60047904EBC40305EB8303E6005B6890
:10C4E00053B303684FF40472C3F80423002002B06E
:10C4F000F0BC7047DC69002C37D11961DA61036840
:10C50000C3F81041D3F8106103680196019EC3F887
:10C510004441D3F8444103680094009CC3F83415A7
:10C52000C3F838250268D2F8003243F02003C2F87D
:10C530000032CEE710207047036801E0E9B910BB74
:10C54000D3F81021D3F84411D3F82401002AF5D0F0
:10C55000344400284FF0000305EB840518BF032086
:10C56000994218BF0F20AB61C1E796B103684FF441
:10C570000472C3F804231120B9E7344405EB8405A1
:10C580000F20AA61B3E7344405EB84050320A961B9
:10C59000ADE71120ABE700BF444F0020032806D8C9
:10C5A000012A06D001291BD0022908D071B1072029
:10C5B0007047012911D002294FF00002F6D10B4B30
:10C5C00000EB4000034400205A707047074B00EB1B
:10C5D0004000034408469A70704700F10E02D2B240
:10C5E00000EB400301490020CA5470478C4F0020E3
:10C5F00010B50388102B07D0112B04D1254B1868D8
:10C600000138186030B110BD224C216811B30131DE
:10C61000216010BD01220221FFF7C0FF40B10728B1
:10C6200006D01D4B1B68002BEDD0BDE8104018470D
:10C63000072202210120FFF7B1FF08B10728F0D13E
:10C64000002108460A22FFF7A9FF0028DBD00728AF
:10C65000E7D1D8E701220846FFF7A0FF38B1072845
:10C6600005D00D4B1B6803B198472168CFE707221F
:10C6700002210120FFF792FF08B10728F1D104221F
:10C6800002210020FFF78AFF0028EED00728E8D11A
:10C69000EBE700BF9C4F0020984F00202DE9F04FA2
:10C6A000DFF8B09100EB400509EBC50583B0EE6AF9
:10C6B000012E07468A4690464FEA400407D0022ED4
:10C6C0004FD056B30026304603B0BDE8F08FAE6AB7
:10C6D000D5F824B05E457DD9013EA6EB0B062D6A48
:10C6E000464528BF4646A5EB0B0296427ED27B1CF0
:10C6F00003EB430309EBC3033246586851465844E1
:10C7000025F05CFB274409EBC70906EB0B0230461A
:10C71000C9F8242003B0BDE8F08FAB6AD5F824B087
:10C720005B459CBF2A6A9B18013BA3EB0B03984512
:10C73000C9D8044409EBC4040137256AA5EB0B06EC
:10C7400007EB4707B04509EBC7096FD2D9F80400DA
:10C750004246584425F032FB08EB0B036362464621
:10C76000B1E7013707EB47076C6AFF000026AB6AA9
:10C77000A34203F1FF3222D9131B2A6A434509EB76
:10C780000701A2EB040B28BF43469B45486828BF1E
:10C790009B46204451465A4625F010FB2B6A5C44C8
:10C7A0009C425E44A8EB0B08DA440DD06C62B8F1F1
:10C7B000000F88D0AB6AA34203F1FF32DCD82A6AAB
:10C7C0001344013B1B1BD9E700246C62B8F1000F36
:10C7D000CDD178E72D6A2E44013EA6EB0B064645E7
:10C7E00028BF4646A5EB0B02964280D307F101080D
:10C7F00008EB480809EBC8085146D8F80400019234
:10C80000584425F0DBFA751B019AD8F804005D4402
:10C810000AEB02012A4625F0D1FA274409EBC709A1
:10C820003046C9F8245003B0BDE8F08FD9F80400B1
:10C830005844C3443246ABEB050525F0BFFA0AEB7A
:10C840000601D9F804002A4625F0B8FA4646656282
:10C8500039E700BFB42C032038B5114C114B1248F6
:10C86000E36110254FF40063104A11492362E0642C
:10C8700000232565E01D0225A3626362E362A365D0
:10C880006365E365A261A264C4E9045525F0A0FBD9
:10C890000849204625F09CFB2023A37138BD00BF2A
:10C8A000B42C0320B04F0020A04F0020EC44050022
:10C8B000F8440500FC4405006DDF704779DF7047E0
:10C8C0007DDF704764DF70472DE9F04F87B0074682
:10C8D000119D00882C880394BDF84840DDF840A0E5
:10C8E000CDE90142002858D04FF0000988461E4685
:10C8F000CB4604E03A880BF1010B93452CDAD8F8CB
:10C90000002052F82B00059000220DF1130105A81C
:10C91000FFF7D8FF044658BB9DF81320B242E9D177
:10C92000B9F1000F28D02A88019B9119994239DC6E
:10C9300052440DF1130105A84FF00109FFF7C2FFA2
:10C94000002834D129889DF813200A442A803A8887
:10C950000BF1010B9345D2DBB9F1000F1DD02B88F1
:10C96000039A013B9B1A9BB2FF2B1BD80AF802309B
:10C97000204607B0BDE8F08F2A88019B511C324445
:10C9800002329A4289B20DDC029B29800AF80130FA
:10C990002A88013292B22A80CAE70024204607B0D2
:10C9A000BDE8F08F0C24204607B0BDE8F08F0446A8
:10C9B000204607B0BDE8F08F2DE9F0470023178827
:10C9C000138090F82D3088B0144605460E46002B93
:10C9D00040F00081AA78002A40F0F580E978A1B102
:10C9E000DA1CBA4200F2F2800222F25423880133A8
:10C9F0009BB201222380F254238813449BB22380EC
:10CA0000F154238813449BB223806A68AAB1D91CCD
:10CA1000B94200F2DB80022192F90020F154238810
:10CA200001339BB20A212380F154238801339BB246
:10CA30002380F2542388013323802B89002B40F07C
:10CA4000F3802B8A002B40F02B812B8B002B40F0A6
:10CA500046812B6A002B44D02088821DBA4200F206
:10CA6000B5801A88052A40F299816FF4486802EB74
:10CA7000080189B24FF27D3C614540F28F815988AF
:10CA8000052940F28B816FF4486E8E441FFA8EFEAA
:10CA9000E64540F283814FF6FF7C624504D0614554
:10CAA00002D08A4200F27A81052232542288013271
:10CAB00092B212212280B1542288013292B2228095
:10CAC0001988B1543244090A51702288023292B254
:10CAD00022805B88B35432441B0A5370238802338C
