:02000004000FEB
:10800000A8650020F9820F0001830F0003830F0091
:1080100005830F0007830F0009830F000000000095
:108020000000000000000000000000000B830F00B3
:108030000D830F00000000000F830F0011830F005D
:1080400013830F0013830F00B99B0F0013830F00DE
:1080500013830F0013830F0013830F0013830F008C
:1080600013830F0013830F0013830F0013830F007C
:1080700013830F0013830F0013830F0013830F006C
:10808000C59B0F0013830F0013830F0013830F0092
:1080900013830F0013830F0013830F0013830F004C
:1080A00013830F0013830F0013830F0013830F003C
:1080B00013830F0013830F00000000000000000076
:1080C00013830F0013830F0013830F0013830F001C
:1080D0008D980F0013830F0013830F0013830F007D
:1080E00013830F0013830F00E1830F0000000000D3
:1080F0000000000013830F000000000013830F0036
:10810000000000000000000000000000000000006F
:10811000000000000000000000000000000000005F
:10812000000000000000000000000000000000004F
:10813000000000000000000000000000000000003F
:10814000000000000000000000000000000000002F
:10815000000000000000000000000000000000001F
:10816000000000000000000000000000000000000F
:1081700000000000000000000000000000000000FF
:1081800000000000000000000000000000000000EF
:1081900000000000000000000000000000000000DF
:1081A00000000000000000000000000000000000CF
:1081B00000000000000000000000000000000000BF
:1081C00000000000000000000000000000000000AF
:1081D000000000000000000000000000000000009F
:1081E000000000000000000000000000000000008F
:1081F000000000000000000000000000000000007F
:10820000DFF80CD000F0DAF800480047D1A70F00E3
:10821000A865002030B4044654E8000F0D4644E839
:108220000053002BF8D1156030BC704730B40446C1
:1082300054E8000F40EA010544E80053002BF7D151
:10824000156030BC704730B4044654E8000F00EAB3
:10825000010544E80053002BF7D1156030BC70478E
:1082600030B4044654E8000F80EA010544E80053A6
:10827000002BF7D1156030BC704730B4044654E889
:10828000000F00EB010544E80053002BF7D1156007
:1082900030BC704730B4044654E8000FA0EB010531
:1082A00044E80053002BF7D1156030BC704770B420
:1082B00004464FF0000054E8006F0D68AE4207BF5F
:1082C00044E80023012044E800630E60002B1CBF3B
:1082D0000020F0E770BC704730B4044654E8000F4B
:1082E00088422CBF451A054644E80053002BF5D1BF
:1082F000156030BC704700000648804706480047BC
:10830000FEE7FEE7FEE7FEE7FEE7FEE7FEE7FEE745
:10831000FEE7FEE701990F0001820F00202A04DB2F
:10832000203A00FA02F1002070479140C2F1200388
:1083300020FA03F319439040704710B5441A0346DE
:10834000944209D28418114403E011F8013D04F865
:10835000013D521EF9D210BD40EA0104A40703D02A
:1083600009E010C9121F10C3042AFAD203E011F861
:10837000014B03F8014B521EF9D210BDD2B201E0FD
:1083800000F8012B491EFBD270470022F6E710B51A
:1083900013460A4604461946FFF7F0FF204610BD73
:1083A00030B504460020034600E05B1C934203D234
:1083B000E05CCD5C401BF8D030BD0000064C074DA2
:1083C00006E0E06840F0010394E8070098471034A5
:1083D000AC42F6D3FFF718FFACD90F00CCD90F0091
:1083E000054B4FF0FF321A6053F8042C034B1A6010
:1083F0001A68034B1A60704704BA0250A425002083
:1084000008BA025001EB820204388A4201D10020EE
:10841000704752F8043D1BBA40F8043FF5E70000EE
:10842000354B8EB019461A680092009AD207FAD5D9
:10843000324B334A1A600A680192019AD007FAD582
:10844000304A1A600A680292029AD207FAD52E4A76
:108450001A600A680392039AD007FAD52B4A1A6069
:108460000A680492049AD207FAD5294A1A600A685F
:108470000592059AD007FAD5264A1A600A6806922C
:10848000069AD207FAD5244A1A600A680792079A10
:10849000D007FAD5214A1A600A680892089AD207CA
:1084A000FAD51F4A1A600A680992099AD007FAD5C4
:1084B0001C4A1A600A680A920A9AD207FAD51A4A1E
:1084C0001A6008680B900B98C007FAD51A600A6802
:1084D0000C920C9AD007FAD5144A1A600A680D92C9
:1084E0000D9AD207FAD5124A1A600E210D230F22D7
:1084F00000200EB000F090BDB0B0025080B002502D
:108500008043012940633921807001298020542152
:1085100000D13490C0403490C0302029C0530D9019
:1085200000413890832308C880E31021004138219E
:10853000CF4308C810B5504B96B01C461A6801923C
:10854000019AD207FAD54D4B4D4A1A602268029221
:10855000029AD207FAD54B4A1A604B4A42EA804047
:1085600022680392039AD207FAD51860226804920F
:10857000049AD007FAD5454A1A60A2F5800242EA69
:10858000814122680592059AD207FAD519602268BE
:108590000692069AD007FAD53D4A1A6022680792D9
:1085A000079AD107FAD53B4A1A6022680892089ABE
:1085B000D207FAD5384A1A6022680992099AD00778
:1085C000FAD5364A1A6022680A920A9AD107FAD571
:1085D000334A1A6022680B920B9AD207FAD5314AB5
:1085E0001A6022680C920C9AD007FAD52E4A1A60AB
:1085F00022680D920D9AD107FAD52C4A1A6022688A
:108600000E920E9AD207FAD5294A1A6022680F9262
:108610000F9AD007FAD5274A1A602168109110994D
:10862000C907FAD51A60144B1A46196811911199A5
:10863000C807FAD5114B2049196011681291129997
:10864000C907FAD51D491960116813911399CC0710
:10865000FAD50B491960116814911499C807FAD515
:1086600017491960116815911599C907FAD5154A66
:108670001A6016B010BD00BFB0B0025080B00250FA
:108680004004419000862929D81001C84014419027
:1086900040142129401465210034409000310C9091
:1086A000C0400C90C030202940960D900041609051
:1086B000031645C80086112100416021594644C86F
:1086C0004014459040142D902DE9F041484B88B05E
:1086D0001C461D680195019DEF07FAD5454BDFF853
:1086E00020E1454F13449B000A181B681E2A88BFCF
:1086F000C0F11E011F330A185B095A43B2F5806F9F
:1087000088BF4FF480614FF0000203F1010588BF7C
:10871000B1FBF3F1944688BF091A25F001058000EA
:10872000914233DC22680492049AD207FAD5334A84
:108730001268216805910599CF07FAD530482E496E
:108740000260002215469A4246D15A1C2A4D19460B
:1087500022F0010200268A4241D82168069106993A
:10876000CE07FAD52749096825680795079DED07C3
:10877000FAD50160002120480C46994232D11E49A9
:1087800000209A4231D808B0BDE8F08126680296F0
:10879000029EF607FAD500F1A04606F52C3636689B
:1087A000D4F80080CDF80C80DDF80C8018F0010FB3
:1087B000F6D0CEF8006000269E4205D11E46B54296
:1087C00006D801320430ABE7C7F800C00136F3E742
:1087D000C7F800C00136F2E70D600132B3E72E6042
:1087E0000131B8E704600131C7E708600133C8E729
:1087F000B4B0025024AC0014D8B002507CB0025087
:10880000D4B0025078B00250F0B52A4D85B02C4655
:108810002E680096009EF707FAD500F1A05000F5EB
:108820002C4080000568206801900198C607FAD5A1
:10883000214E2248356002EB8307BA422BD15A1CE5
:108840001E4822F0010200279A4229D82368029389
:10885000029BD807FAD51A4B0B449B0018681F30AF
:10886000B2EB501F4FEA501313D2216803910399C2
:10887000C907FAD5154400219B1A104A35600846ED
:108880008B4210D85A1C0D4922F0010200209A4256
:108890000CD805B0F0BD52F804CBC0F800C0CCE74E
:1088A00007600133D0E710600131E9E70860013368
:1088B000EDE700BFB4B00250D4B00250D8B00250BF
:1088C00024AC001410B5494B94B019461A680092B4
:1088D000009AD207FAD5464B464A1A600A680192B6
:1088E000019AD407FAD5444A1A600A680292029A99
:1088F000D007FAD5414818600A680392039AD20754
:10890000FAD53F4A1A600A680492049AD407FAD545
:108910003C4A1A600A680592059AD207FAD53A4A83
:108920001A600A680692069AD407FAD5374A1A607E
:108930000A680792079AD207FAD5354A1A600A6878
:108940000892089AD407FAD5324A1A600A6809923E
:10895000099AD207FAD5304A1A600A680A920A9A26
:10896000D407FAD52D4A1A600A680B920B9AD207DF
:10897000FAD52B4A1A600A680C920C9AD407FAD5D9
:10898000284A1A600A680D920D9AD207FAD5264A2B
:108990001A600A680E920E9AD407FAD5234A1A6012
:1089A0000A680F920F9AD207FAD5214A1A600F4B24
:1089B00019461C681094109CE407FAD50C4B1860FB
:1089C000086811901198C407FAD51A600A681292C3
:1089D000129AD007FAD5174A1A600A681392139AA6
:1089E000D207FAD5144A1A6014B010BDB0B00250C4
:1089F00080B00250809065210004099040966590F7
:108A00008080612180200821802064900081619015
:108A1000004610210081112100414421802020299D
:108A2000024610C8008609218020602140212829A3
:108A30004096652140962529594614C810B5544BD7
:108A400098B019461A680192019AD207FAD5514B8B
:108A5000514A1A600A680292029AD407FAD54F4A1C
:108A60001A600A680392039AD007FAD54C48186036
:108A70000A680492049AD207FAD54A4A1A600A6828
:108A80000592059AD407FAD5474A1A600A680692F1
:108A9000069AD207FAD5454A1A600A680792079AD9
:108AA000D407FAD5424A1A600A680892089AD2078F
:108AB000FAD5404A1A600A680992099AD407FAD589
:108AC0003D4A1A600A680A920A9AD207FAD53B4AC6
:108AD0001A600A680B920B9AD407FAD5384A1A60C2
:108AE0000A680C920C9AD207FAD5364A1A600A68BC
:108AF0000D920D9AD407FAD5334A1A600A680E927D
:108B00000E9AD207FAD5314A1A600A680F920F9A64
:108B1000D407FAD52E4A1A600A681092109AD20722
:108B2000FAD52C4A1A601A4B19461C681194119CEC
:108B3000E407FAD5174B1860086812901298C4071A
:108B4000FAD51A600A681392139AD007FAD5124A16
:108B50001A600A681492149AD207FAD51E4A1A604B
:108B60000A681592159AD407FAD51C4A1A600A6841
:108B70001692169AD007FAD5194A1A600A681792FF
:108B8000179AD207FAD5174A1A6018B010BD00BF5D
:108B9000B0B0025080B002500093652100043190C3
:108BA000409665900083612100C3302100C364902A
:108BB0000081619000461021008111210041442173
:108BC00000C320290C4610C80086312100C3602153
:108BD00040C12829409665210013319040962529EF
:108BE000594614C8400432492DE9F041834B1D68B1
:108BF00098682033A0B01E461A680192019AD207E5
:108C0000FAD57F4C7F4B236033680293029BDF07CA
:108C1000FAD57D4B23607D4B1F461A680392039A59
:108C2000D107FAD57A4B1968C1F340213268049212
:108C3000049AD207FAD5774A22603A680592059AD3
:108C4000D207FAD51A68C2F34022002900F0D18079
:108C5000002A00F0CE8032680692069AD107FAD533
:108C60006D4A22603A680792079AD207FAD51A68C5
:108C7000C2F34022316808910899C907FAD56749BB
:108C80002160396809910999C907FAD51B68C3F3AE
:108C90004023002A00F0AF80002B00F0AC80336846
:108CA0000A930A9BDA07FAD5564B236033680B9375
:108CB0000B9BDB07FAD55A4A226033680C930C9B56
:108CC000DF07FAD5574B236033680D930D9BD90707
:108CD000FAD5554B236033680E930E9BDB07FAD50C
:108CE000524B236033680F930F9BDF07FAD5504B2D
:108CF0002360504B1E46196810911099C907FAD588
:108D00003F4C4D4B236033681193119BDB07FAD521
:108D10004A4B236033681293129BDF07FAD5484B06
:108D200023603A4B9846196813911399C907FAD5ED
:108D3000324F386033681493149BDB07FAD52260F6
:108D400033681593159BD807FAD53E4B23603368DB
:108D50001693169BD907FAD53B4B236033681793BC
:108D6000179BDA07FAD5394B236033681893189BA1
:108D7000DB07FAD5364B236033681993199BD80764
:108D8000FAD5344B236033681A931A9BD907FAD566
:108D9000314B236033681B931B9BDA07FAD52F4BAB
:108DA000236000F0D3F908BBD8F800301C931C9B5B
:108DB000DB07F9D53D6033681D931D9BD907FAD5B4
:108DC000274B236033681E931E9BDA07FAD5254B89
:108DD0002360D8F800301F931F9BDB07F9D50C4B9D
:108DE0001B6813F4805F204B08BF184620B0BDE815
:108DF000F0811E48FAE71E48F8E700BF90B0025025
:108E000080B0025000100251C01F7229B4B002504D
:108E100088B00250C0CF0129C01F0E29C03F0029D1
:108E200040010249003184A800001649400108A110
:108E300080440888B0B00250C044708880077A41EE
:108E4000C0077E4100006A498006164940006E490D
:108E500000020021008220214082202180822421E2
:108E600040A161A100C861510308F1000108F100AF
:108E70000208F10008B540B1202801464FF0070272
:108E800028BF20210020FFF71FFC024B00221A60A0
:108E900008BD00BF1CB80250F0B51D6885B001F0D8
:108EA0001F040DB91F2C25D1154D2E462F68019793
:108EB000019FFF07FAD500F1A05000F52C4080007B
:108EC000006835680395039DED07FAD50D4D00EB5D
:108ED000611028600C48006802901F2C18BFC9431D
:108EE00002980FBF106001F01F0100FA01F111603C
:108EF0000021196010684300C00F136005B0F0BD79
:108F0000B4B00250E4B00250DCB0025030B51F4B98
:108F100085B01A46196800910099CC07FAD500F17E
:108F2000A05000F52C408000016813680193019B5C
:108F3000D807FAD5164B174C1B68174D13F11F00B5
:108F400048BF03F13E0040110138002810DA002329
:108F50000130400153B1A0F120014FF00042134213
:108F600004D1013888424FEA5202F8D105B030BD31
:108F700013680393039BDB07FAD5431823602B6820
:108F80000293029B002BE3D10138DEE7B4B002501C
:108F9000ACB00250E4B00250DCB002500A460021EE
:108FA000AFF3008038B5A0F12003B3F5426F05465A
:108FB0002CD88F2826D800F1470300F16604DB0681
:108FC0004FEA541400D0013464013F34A409013441
:108FD00011B18C421AD80C46E3004FF48050B0FB1C
:108FE000F3F0202828BF202002B11060084B012296
:108FF0001A60214600F068F82846214600F088F8FB
:10900000002038BD00F11F046409DDE70148F8E7DE
:109010001CB802502221F00070B5264888B00546E1
:1090200004680094009CE607FAD52348234C0460AA
:10903000234C44EA83432C680194019CE407FAD54D
:109040000360930143EA824242F0104444F4C04476
:109050002B680293029BDE07FAD504602B6803930A
:10906000039BDB07FAD5174B03608B0143EA814171
:1090700041F0104343F4C0432E680496049EF60763
:10908000FAD503602B680593059BDE07FAD50460CB
:1090900041F058412B680693069BDC07FAD5016026
:1090A00042F058422B680793079BDB07FAD5026012
:1090B00008B070BDB0B0025080B00250C02102298B
:1090C0008071009880611890002230B549001346E5
:1090D000023840F6FC75940004F1A04404F52C34E9
:1090E000904202F10102CABF236025605B181E2A6C
:1090F000F1D1044A13600B445360034B034A1A60D6
:1091000030BD00BF78B0025084B0025020F80F008C
:109110000C4B18603F3020F03F0089014030586010
:109120009960D9601961596199610748D9611C3307
:1091300082B002680192019AD207FAD5196002B092
:10914000704700BF90B00250B4B002502DE9F0411A
:10915000012392B0CDE90333624B1E461A68059293
:10916000059AD107FAD5604C604B2360604B1946D5
:109170001A680692069AD207FAD55E4B1A68D70487
:1091800000F1A88032680792079AD507FAD55A4AA3
:1091900022600A680892089AD007FAD51B68DA0498
:1091A000C3F3003700F198801220FFF7AFFE0546A9
:1091B0001320FFF7ABFE85428CBF12201320FFF770
:1091C000A5FE451EFFF72CF903AB01AA2946122084
:1091D000FFF762FE04AB804602AA29461320FFF780
:1091E0005BFE00EB4800022832D003283ED0012865
:1091F00074D133680993099BDB07FAD53F4B236091
:1092000033680A930A9BD807FAD53D4B236033682D
:109210000F930F9BD907FAD53A4B2360336810930D
:10922000109BDA07FAD5384B236033681193119BF2
:10923000DB07FAD5354B2360013D25D510231922D4
:1092400018210020FFF7E8FE384612B0BDE8F08193
:1092500033680B930B9BD907FAD52D4B23603368EA
:109260000C930C9BDA07FAD52A4BCFE733680D93A2
:109270000D9BDB07FAD5284B236033680E930E9BBA
:10928000D807FAD5254BC1E703AB01AA294612201E
:10929000FFF702FE04AB044602AA29461320FFF79B
:1092A000FBFD10EB440402D1FFF7C8FBC4E7FFF756
:1092B00009FB022C08D0032C09D0012C10D1172156
:1092C0001620FFF737F9B7E715211420F9E70F212A
:1092D0000E20F6E7124FB7E7124FB5E7124FB3E78C
:1092E000124FB1E7B0B0025080B0025000084A51AE
:1092F000B4B0025088B0025000084E5100065A49DE
:1093000040065E49000442410014424940042E498F
:10931000000652494006564900063A4940063E4971
:109320000608F1000708F1000408F1000508F10043
:10933000014B1860704700BF08BA0250014B18601B
:10934000704700BF04BA0250094BC2431A60043B85
:1093500082B01B680193074B019A024204D0064A6F
:109360001060186802B0704720BF1A680192F3E7D6
:1093700004BA0250A425002008BA0250FEF7DDBF4F
:10938000FFF705B80A460021FFF701B82DE9F743BA
:1093900005460E461F46114600F058FA04460028BE
:1093A00040F08280002E00F08380002900F082804F
:1093B000202F40F0818005F14404082205F10409C2
:1093C0002046FFF71FF805F12408082231464846D9
:1093D000FFF718F806F1200108224046FFF712F8BF
:1093E00001A94FF480700197FFF7D8FD002865D1DF
:1093F000334A4FF48073136001219360314A08238C
:10940000FFF702FA012108462F4A0523FFF7FCF96E
:1094100008234A4601211C20FFF7F6F9082342469B
:1094200001210320FFF7F0F9224608230121022041
:10943000FFF7EAF9254A082301211A20FFF7E4F98A
:10944000234A052301211B20FFF7DEF9214A0823C7
:1094500001211420FFF7D8F91F4A08230121152004
:10946000FFF7D2F9082305F1640201211620FFF766
:10947000CBF9082305F1840201211720FFF7C4F975
:109480000823164A01210B20FFF7BEF9FFF7ACFBBA
:1094900004460198FFF7EEFC114B002C18BF1C4648
:1094A000A4212846FFF76EFF204603B0BDE8F083F5
:1094B0000C4CF9E70C4CF7E70C4CF5E7084CEFE7E0
:1094C00090B0025020D90F0098D90F00E0D80F00BB
:1094D00084D90F0044D90F0064D90F0000D90F00C0
:1094E0008408F0007608F0008008F0008108F000A1
:1094F00038B50D460446B0B1A02200210430FFF774
:109500003FFF95B10822294604F16400FEF77AFF77
:10951000082205F1200104F18400FEF773FF044BDB
:109520002360002038BD0348FCE70348FAE700BF8A
:10953000DD55AABB7108F0008308F00037B5019330
:10954000069B009304461546FFF7D2FF40B9DDE9BC
:1095500000322946204603B0BDE83040FFF716BF71
:1095600003B030BD2DE9FF41144B04460D460FCB2F
:10957000E84688E80F00204600F078F90746B0B9C1
:10958000CDB1636A261D01963BB90123226F636248
:1095900004F13001404600F081F83346043D2434A4
:1095A00053F8042B12BAA34245F8042FF8D13846D9
:1095B00004B0BDE8F081024FF9E700BFB0D80F005A
:1095C0000502F00013B5044670B10430702101901B
:1095D000FFF7D8FE019805492022FFF7CFFE044B84
:1095E0002360002002B010BD0248FBE7C0D80F0086
:1095F000DD55AABB0002F0002DE9FF47254B0446CC
:109600000F4615460FCBE84688E80F0025B900261F
:10961000304604B0BDE8F087204600F027F9064642
:109620000028F5D1666A231D01938EBB206FC0B15F
:10963000C0F14009A94528BFA94604F1300A4A46AD
:1096400039465044FFF79AFE226F4A44402A4F445D
:109650002267A5EB090504D15146404600F01EF8EB
:10966000266705F03F0935F03F0505D039462A4603
:10967000404600F013F82F44B9F1000FC7D04A4616
:10968000394604F13000FFF779FEC4F87090BFE767
:10969000014EBDE7B0D80F000C02F0002DE9F74FE6
:1096A000314B4468054691469A461A68002AFCD117
:1096B0002E4B9B461A68002AFCD14FF0FF300191D7
:1096C000FFF736FE8020FFF739FE294E294ADFF8E2
:1096D000B880294F012307203360A2F59E72C2F89B
:1096E0003C011360636AC8F80030A36A3B602B68D2
:1096F00042F8043CAB68204698470199DAF80030FC
:10970000002BFBD1B9F1000F20D11C4B04221A60B1
:10971000DAF80030002BFBD1DBF80090B9F1000F34
:10972000FAD1EB6820469847D8F8003063623B686E
:10973000A362134BC3F80090C3F84491DAF80030E9
:10974000002BFBD1336003B0BDE8F08F236A012BFF
:1097500004BF0B4A13600B4B40201960C3F8049000
:10976000FFF7F2FDD4E700BF10B9025020BC025051
:1097700018B8025000B90250D0B70250C8B7025012
:1097800084B6025028BC0250CCB70250084B1B686C
:109790001B0EF02B08D1074B1A68074B9A4205D1D4
:1097A000064B002018607047052070470620704760
:1097B00028B9025024BA02500000E0200CBA02502E
:1097C0000C4B1B68C3610C4B1B6883610B4B1B6804
:1097D00043610B4B1B6803610A4B1B68C3600A4B58
:1097E0001B688360094B1B684360094B1B6803605F
:1097F000704700BF5CB6025058B6025054B60250D3
:1098000050B602504CB6025048B6025044B6025010
:1098100040B602500C4BC2691A60826943F8042CAE
:10982000426943F8082C026943F80C2CC26843F8DB
:10983000102C826843F8142C426843F8182C0268F4
:1098400043F81C2C704700BF5CB6025030B1026870
:10985000034B04489A4208BF0020704702487047F3
:10986000DD55AABB8208F0007108F00030B1026833
:10987000034B04489A4208BF0020704702487047D3
:10988000DD55AABB0202F0000002F0002DE9F04114
:10989000194E4FF48271D6F8040130B11748C268EE
:1098A000521CC260304602F079F900254FF4A077CF
:1098B00007EB85018AB23046B258BAB189B202F0DC
:1098C0006DF90E48103000EB0514204603F040FC03
:1098D000616819B1204603F0C3FB07E0A16811B12C
:1098E000204603F0BDFB206800B180476D1C022DAF
:1098F000DED3BDE8F08100000040024058000020A7
:109900002DE9F0414FF080539B4DD3F830019B4E31
:10991000D3F83411421C07D084460F46012400229C
:10992000BCF1080F06D014E0327895F800C0C2F3FD
:109930000317F3E72FB1012F03D0022F01D0032F1C
:1099400007D14FF08047C7F80C21C7F810218C4F82
:109950003A60471C04D007468C46082F06D08BE09F
:1099600096F800C02F78CCF3031CF6E7BCF1000F8B
:1099700008D0BCF1010F05D0BCF1020F02D0BCF140
:10998000030F79D17F4F3F68DFF8FCC1CCF800703E
:109990007C4F3F1D3F680CF1040CCCF80070794FF0
:1099A00008373F680CF1040CCCF80070754F0C3789
:1099B0003F680CF1040CCCF80070724F10373F6810
:1099C0000CF1040CCCF800706E4F14373F680CF1AA
:1099D000040CCCF800706B4F18373F68DFF8A8C153
:1099E0000CF1200CCCF80070664F1C373F680CF16E
:1099F000040CCCF80070634F20373F680CF1040C66
:109A0000CCF800705F4F24373F680CF1040CCCF8A1
:109A100000705C4F28373F680CF1040CCCF80070E4
:109A2000584F2C373F680CF1040CCCF80070554FA0
:109A300030373F68DFF850C10CF1400CCCF80070B3
:109A4000504F34373F680CF1040CCCF800704D4F88
:109A500038373F680CF1040CCCF80070494F3C37A4
:109A60003F680CF1040CCCF80070464F40373F685B
:109A70000CF1040CCCF80070082806D10F0004D1BA
:109A8000DFF80CC1414FCCF80070082806D10F0058
:109A900004D1DFF800C1FB27CCF80070082808D1FA
:109AA0000F0006D193F858C23B4B1F686CF30307B5
:109AB0001F60082804D10B0002D1384F83013B609E
:109AC000431C03D131782878C1F3031108280DD144
:109AD00029B1012903D0022901D0032906D1304838
:109AE0000168C90702D06FF0010101602D480168CB
:109AF00041F470010160BFF34F8FBFF36F8F4FF0E0
:109B00001021D1F80C02284BC507284811D01C6041
:109B10000468002CFCD0D1F80C4224F00104C1F8F8
:109B20000C4201680029FCD01A6001680029FCD0B1
:109B30001AE0D1F80052002D03DBD1F80452002DB9
:109B400014DA1C600468002CFCD01224C1F8004216
:109B50000568002DFCD0C1F8044201680029FCD042
:109B60001A6001680029FCD000F036F8114910484D
:109B70000860BDE8F0810000E00F00F0E80F00F0A1
:109B8000380500400404001020C50040488103004F
:109B90008C56004018F50040E40E0040409602400C
:109BA0000004004088ED00E004E5014000E40140CD
:109BB0000090D003EC00002001480068004700003E
:109BC000CC000020034808B5002101600068009027
:109BD00008BD000000010140BFF34F8F0548016838
:109BE000054A01F4E06111430160BFF34F8F00BFEC
:109BF000FDE700000CED00E00400FA0502E008C8F3
:109C0000121F08C1002AFAD170477047002001E0F6
:109C100001C1121F002AFBD17047800701D000202C
:109C2000704701207047C3688B4206D81144006911
:109C3000491E814201D80120704700207047000072
:109C400070B5104CA66C656A01F040F9216B0844B0
:109C50006A1A3144814200D10022082300F0D2FC6C
:109C600006000DD101F032F90022294600F040FA39
:109C7000A16A814203D10121A561C4E907013046EF
:109C800070BD00000C1E002002F030FA2DE9F047F4
:109C9000244C8146924660880E4681423FD84FF65A
:109CA000FF77002000F076F822786078A18888425B
:109CB00001DA401C00E00020C0B2904203D1002035
:109CC00000F06AF829E065784FF000086078884273
:109CD00001DA401C00E000206070002000F05CF819
:109CE000BD421AD0A068B9F1000F40F835A00DD0E0
:109CF00066B16188E068324605FB01004946FEF71F
:109D00001CFBA06800EBC500868003E000EBC500EB
:109D1000A0F804800020BDE8F0870420FBE70920BC
:109D2000F9E70000D400002010B50E4C03E0401C01
:109D300000E00020207020786178814210D02278E5
:109D40006188E068A36802FB010003EBC20153F8DD
:109D50003220898890472078A1888842E9DAE6E7AE
:109D600010BD0000D400002030B5CB0008339DB2F8
:109D700093074FF0000401D0072030BD044B9A60D8
:109D80002A44DA605C701C7058809980002030BDD5
:109D9000D400002000F002B800F008B872B6024803
:109DA0000168491C01607047E4000020034908680D
:109DB000401E086000D162B670470000E400002039
:109DC00070B5054608680C46411C04D001F084FEBD
:109DD000206801F047FE6068411C02D0002101F0BC
:109DE0002CFE2968A069C1F82405607D217D2A68C0
:109DF0000843C2F86C05D4E900122868C0F80C15B5
:109E0000C0F81425207D012814D1A068411C02D07F
:109E1000002101F012FEE068411C04D001F05CFE5C
:109E2000E06801F01FFED4E902122868C0F8082596
:109E3000C0F8101570BD000070B510480146456AA5
:109E4000C06A8C6CAC2801D024B106E0486B044495
:109E50002D1A02E001F04EF804462A462146084831
:109E6000FEF79EFA002807D000F082FE2946204621
:109E7000BDE8704001F070B970BD00000C1E0020FC
:109E800000800F0013B90378012B01D001F085BBCE
:109E9000012070470022C32100F5187000F028B996
:109EA0002DE9F043A3B00446DDE92A9520200F46B2
:109EB0002190984616467C2102A8FEF766FA4121B9
:109EC0002046FEF762FAB7F8940006EB061107EB9E
:109ED0008101B04201D991F8965025701DB3012D32
:109EE00004D0022D0AD0032D13D116E000224946DA
:109EF000404600F0FDF8C4F8010014E021A9601C00
:109F0000CDE900014B4642460A4902A800F0F4FEA2
:109F100048B1002023B0BDE8F083B1F89820601C60
:109F20009A31FEF70AFA4A464146204601F035FBCF
:109F3000F0E7000024D60F0010B500284FF0000015
:109F400006D004490870BDE81040034801F00CBA7F
:109F500000F0BEFA4C000020D1A40F0010B54368F9
:109F60009C18446021B905E013F8010B01F8010BBE
:109F7000521EF9D2012010BD10B50548012100F094
:109F80006EFCBFF35F8F08B1002010BD012010BD33
:109F90008C000020BFF35F8F0149002008607047EC
:109FA0008C00002006490020086006494FF48060BC
:109FB000C1F88001BFF34F8FBFF36F8F7047000070
:109FC00000A5025004E000E00349012008600349B5
:109FD0008002C1F80001704700A5025004E000E0D3
:109FE00070B500F10805106814460E46202802D20C
:109FF00048F2145070BDFFF7BFFF90B1FFF7E4FFC8
:10A0000031462846FFF7AEFA0546FFF7CBFFFFF7CC
:10A01000C1FF284600F0D2FA0028EBD120212160B0
:10A0200070BD48F2045070BD10B50830FFF7CAFA91
:10A03000BDE8104000F0C2BA2DE9F04700F1080970
:10A040000E461446FFF798FFB8B1FFF7BDFF4FF477
:10A0500080584546AC4200D825462A4631460E482F
:10A06000FEF76BF92A460C494846FFF7C5FA070088
:10A07000A4EB05042E4404D005E048F20450BDE8EA
:10A08000F087002CE5D1FFF78DFFFFF783FF3846FF
:10A09000BDE8F04700F092BA0C07002070B50B48FD
:10A0A00000240460BFF35F8F094D01202860FFF793
:10A0B0006DFB01002C604FF0030004D0052901D195
:10A0C00048F2035070BD002070BD00008C000020DD
:10A0D00000A50250014900200860704700A5025009
:10A0E0000249CA6B4260096C816070470C1E0020F7
:10A0F000F0B54FF0FF3622B11268D24300230A4D6B
:10A100000DE03246FAE7C45C62400824D70700D06D
:10A1100037462F4087EA5202641EF7D15B1C8B4200
:10A12000F1D3D043F0BD00002083B8ED10B5044654
:10A130000068401C07D0204602F09EFE2168814244
:10A1400001D1012010BD002010BD000010B50B4C46
:10A1500090B0607800280ED100F032FE202208492D
:10A16000684600F04DFE40236A460649064800F066
:10A170007FFD0120607010B010BD0000AC00002019
:10A1800098D50F00B824002018D60F00F0B5146938
:10A1900006468DB020681546271DE0B1022920D063
:10A1A0000A2000906B4609AA304602F018FD0028EC
:10A1B0000FD009A901A8009A02F058FB01AE96E859
:10A1C0000F0005AE86E80F00236869683A4605A8C7
:10A1D00098470DB0F0BD0DB03046BDE8F04002F03C
:10A1E000B9BB6946304602F04BFB0028F1D023682A
:10A1F00069683A46684698470028EAD002980028DD
:10A20000F5D1019870600120E3E753689B7813F063
:10A21000C00303D0402B03D00020704700F002B8E9
:10A22000FFF7B4BF2DE9FF410B46516806461446BF
:10A230008878334D00F00F0210F0300055F82250AE
:10A2400006D0102806D0202808D0302856D13EE06D
:10A2500022694DE061690120087047E0022B28D196
:10A26000042A26D84FF0010869463046676902F093
:10A2700007FB00281AD009E00B89226903FB0022A2
:10A280006846A84770B13888401C3880029820B1D1
:10A29000616838884A899042EED3019870600298CC
:10A2A00060BB02E04FF00008F7E7404604B0BDE8AD
:10A2B000F081D4E904300F890288498907FB023311
:10A2C0008A421BD2521C02801A46616810E008883C
:10A2D0006169072A088009D1606801892069FEF751
:10A2E00054F860682169C06802F0E5FA2269616883
:10A2F00004B03046AC46BDE8F04160470020D5E7E9
:10A300008CD80F0010B52E2001F0A0FB2F2001F0FB
:10A310009DFB2D2001F09AFB172001F097FB1720E1
:10A3200001F0AAFB2E2001F0A7FB2F2001F0A4FBD7
:10A330002D2001F0A1FB322000F0B6FD172001F026
:10A34000C1FB124C207801281FD0192001F07EFBA0
:10A35000192001F091FB4FF4FA7000F0A5FD2920BF
:10A3600001F074FB192001F0ADFB292001F0AAFBDC
:10A370004FF4167000F098FD292001F07DFB41F2AA
:10A38000883000F091FD0120207010BD08000020F1
:10A3900070B51F4801240168C90301D581130CE081
:10A3A0001C4801681522C9B2B2EBD10F07D1016870
:10A3B000C90704D0016801F0560101600024164D60
:10A3C000286A01281CD14FF4405014494068884243
:10A3D00008D123464FF4805105F518706A6BFFF7DA
:10A3E00051FD68B100F072FD014623460C48AA6990
:10A3F000FFF748FD20B101F0CBFB10F0B10F01D009
:10A40000012070BDA86D0128FBD0002070BD0000A8
:10A4100000040040200500400C1E0020DBE5B15187
:10A42000AD2000204169002901D0C068084770476D
:10A430007047000010B50446801E062810D2DFE8E1
:10A4400000F00D03030F09090A494FF4701000F0E2
:10A4500099FA05E00120FFF76FFD01E000F0ACFF85
:10A4600005484168002903D02046BDE81040084750
:10A4700010BD000095A60F004C00002010B504464A
:10A48000062801D0072C02D1002001F04FF8044823
:10A490000168002903D02046BDE81040084710BDE0
:10A4A000900000200A46014610460A78082A0BD17F
:10A4B0004288521E93B243800288002A06D0002BA5
:10A4C00004D1428003220A7002F0BABB7047000038
:10A4D000BFF34F8F05480168054A01F4E06111435D
:10A4E0000160BFF34F8F00BFFDE700000CED00E0FF
:10A4F0000400FA052DE9FC4180461F4615460E462C
:10A5000000240D4800F09DF938B11120BDE8FC8110
:10A5100006EB043001F0EAFA641CAC42F8D10648BC
:10A5200000F08CF9CDE90057334600220221404665
:10A5300000F004F80020E9E7E80000202DE9F043EE
:10A5400087B00446DDE90E8980681D4616460F4631
:10A5500000280BD018216846FDF717FF02A88DF8D8
:10A56000007080E86003A1686846884707B0BDE8CE
:10A57000F0830B2803D30B38C0B200F009B8704742
:10A580000249002208780A707047000094000020F9
:10A59000014908700B2070479400002001490120F8
:10A5A000087070474C000020014901200870704776
:10A5B000880000200123723001F018B810B50F4C4C
:10A5C00048F20351031B48F21652A04211D007DC97
:10A5D00000280AD00A4BC01808D0012804D10BE08B
:10A5E0000A2B01D00D2B07D0104610BD48F20150A8
:10A5F00010BD48F2025010BD084610BD0202F00026
:10A6000000FE0FFF2DE9F04781461D46164688469D
:10A61000494502D10020BDE8F087A8EB0900040BF2
:10A6200006F6FF704FF0000A070B00F0B5FAA542DE
:10A630002AD22C4628E0A74202D8BA46354601E085
:10A64000A246250300225146484600F043FD00285B
:10A65000E1D1681E00F003002A1A00234146484653
:10A66000D21C00F049FD0028D5D10948A7EB0A0704
:10A67000761B016BA94429440163A844002000F023
:10A680001FFF5FEA000AC6D1002ED4D15046C2E7B0
:10A690000C1E00200120FFF74FBC00000149416063
:10A6A0000020704748D80F0070B50D46044600687A
:10A6B0004FF4887101F07DFA4FF49071206801F039
:10A6C00078FA4FF49271206801F073FA4FF4A27196
:10A6D000206801F06EFA4FF4AC71206801F069FA5D
:10A6E00020681249C0F804132068690740F3073056
:10A6F000090E002804DB00F1E02080F8001405E0DA
:10A7000000F00F0000F1E02080F8141D206840F3F5
:10A710000730002809DB00F01F02012191404009A9
:10A72000800000F1E020C0F8001170BD100342006D
:10A7300002480068002800D001207047E80000208F
:10A7400010B54FF44051144B4C6800F500509C423A
:10A7500004D042689A4201D1012200E000229C42CA
:10A7600018D144689C4215D10A78142A01D9496944
:10A7700000E00021094A0378B1FBF2F1142B01D962
:10A78000406900E00020B0FBF2F0814201D00122DC
:10A7900000E00022104610BDDBE5B15140420F0041
:10A7A00070B5054608680C464A68866828463146F2
:10A7B00001F0A2FF6068286104F10C006861B078C4
:10A7C0000221B1EB901F01D1241D2C6170BD00004E
:10A7D000192001F03BF9292001F038F9192001F086
:10A7E00071F9292001F048F910480168B1F1FD3FE5
:10A7F00004D1002101600E49012008704FF0005182
:10A800000C48086000F09CF94FF48051002000F0E3
:10A81000CDF840B90748C0F57E2100F0C7F810B95F
:10A82000054800F01DF901F061FC0000FCFF032069
:10A830000800002000800F0031A40F00002100F06C
:10A8400003B8012100F006B808B56A46FDF7FBFC25
:10A85000009808BD08B56A46FDF7E8FC08BD08B5D4
:10A860006A46FDF7D7FC08BD70B5044600252846AA
:10A87000FFF790FA21686268086890420ED9401E7E
:10A8800008600178238AE26801FB0325227A2168A7
:10A89000101AC0B20A79824200D208710020FFF774
:10A8A0007BFA284670BD70B505460C460020FFF7C0
:10A8B00071FAE868298A201AB0FBF1F12A68106859
:10A8C000431C13600170BDE870400020FFF764BABC
:10A8D00010B530B1017A42680368891AC9B21A60AA
:10A8E00006E00E2010BD03681A68541C1C6011702D
:10A8F000491EC9B2F7D2006800210171084610BD97
:10A9000010B54FF0E0224FF0FF314FF48054C2F801
:10A910008011C2F8801200F02BFC2046BDE81040E8
:10A92000AFF3008010B504461448C0F57F2100F055
:10A930003DF808B1FFF7A8F900F0C8FA0146104841
:10A940008069421EC2F30B02801A0144002001F606
:10A95000FF7100F02BF808B1FFF796F9D4E9000178
:10A96000002282F3148882F3108882F3118882F324
:10A97000138880F30888BDE81040084700800F0066
:10A980000C1E002070B5084D04460E46686802F0A3
:10A99000DFFB002C06D0324621466868BDE87040D7
:10A9A00002F0C8BB70BD00005800002030B50A0599
:10A9B00002D1B0F57F2F01D9072030BD094C2268A4
:10A9C000082A01D3042030BD074B03EB0213C3F860
:10A9D0000008C3F804180220C3F80808521C00201D
:10A9E000226030BD5400002000E0014070B5194DD8
:10A9F0000024E86A2435012807D0A52808D0AA2811
:10AA000009D0AC280AD0002070BDFFF719F90BE07F
:10AA100002F0AEF907E0FFF70FFA05E002F0A8F93F
:10AA200008B9FFF709FA0124284600F073FA0A4929
:10AA300000200870094800F043FD08B1032070BDF4
:10AA40000120002CFBD00349096A0129F7D102201B
:10AA500070BD00000C1E002088000020A9A50F007A
:10AA600070B5304E7060002000F084FC002850D19A
:10AA7000FFF7BCFF002520B1012829D0022848D1CA
:10AA800005E04FF47014FFF783FC10B93EE04FF47B
:10AA9000A02400F081F8244A20211820FFF764F94F
:10AAA00008B1FFF7F1F801F073F81621B1EBD00F00
:10AAB00009D101F06DF8C00705D001F069F81B4914
:10AAC00020F0B10008601A48816D012904D00AE025
:10AAD0000120FFF731FA1CE08565002000F0D6FC6C
:10AAE00008B1FFF7D1F800F029FB90B911492046D1
:10AAF000FFF748FF104800F00BFB50B900F038F8A2
:10AB0000FFF712F920BF40BF20BFF7E700F02AFC93
:10AB100008B1032070BD3570084800F025FCFFF730
:10AB2000EFFEF6E74C000020EC0200201C05004080
:10AB30000C1E002095A60F0035A40F009DA50F0048
:10AB400010B540F6F8700168491C02D1074900F0C1
:10AB5000E5FF40F6FC700168491C05D1BDE81040D6
:10AB60004FF47E2100F0DABF10BD000000800F001E
:10AB700010B501F025F8002803D0BDE8104002F020
:10AB8000C7BC10BD034A93680A4601469860184640
:10AB900002F0D0BA5800002070B50E4D2878002879
:10ABA00017D101F00DF8012690B10B480468A4F507
:10ABB0004864962C00DA962402F0AAFC0749204645
:10ABC000FFF7E0FF4FF0E0214FF48030C1F80001C3
:10ABD0002E7070BD89000020040501404DD50F0086
:10ABE00070B504460D4620220830FDF7A6FB202252
:10ABF00005F1200104F12800FDF79FFB002070BD46
:10AC00002DE9F8430C461749DDF820900160054610
:10AC10001F46904614480121FFF721FEBFF35F8FC6
:10AC2000002618B148F20450BDE8F883FFF7CCF9CC
:10AC300043464A4604F1080128460097FEF77EFC89
:10AC40000446FFF7AFF9BFF35F8F074806602000A7
:10AC5000EAD00649CC4202D148F24250E4E748F239
:10AC60001650E1E7DD55AABB8C0000207CF70FFFF2
:10AC700070B516460C46054600F0E6F800280ED1E1
:10AC8000AA791946304600F0ECF8002807D1314681
:10AC90002046FFF7A5FF002801D10149216070BDC2
:10ACA0007052464D2DE9F8430C46DDE90858074639
:10ACB000994616460F49204600F0BAF8002811D1EF
:10ACC0006068414640794200284600F0CAF80028F2
:10ACD00008D14EB15FB14B46324621463846009509
:10ACE000FFF78EFFBDE8F88348F21050FAE748F20C
:10ACF0001550F7E77052464D2DE9F0411D46DDE94C
:10AD000006871646044600F02DF800280DD12A4685
:10AD10003146204600F03CF8002806D13A4641462C
:10AD20002046BDE8F04100F002B8BDE8F08170B502
:10AD300015460E46044602F0DBFB002807D13EB163
:10AD400060682968C268914205D248F2145070BD0B
:10AD500048F2135070BD83682A4631462046BDE84C
:10AD60007040184710B550B161B1416009680446A0
:10AD70008847002802D105482060002010BD48F215
:10AD8000015010BD48F2105010BD00006E524648F0
:10AD900070B515460E46044602F0AAFB00280BD1FA
:10ADA00046B155B160682A46314643682046BDE841
:10ADB0007040184748F2105070BD002070BD000070
:10ADC0002DE9F0410B480C4D0C4F401BC6080120EB
:10ADD0003870002406E000BF55F834008047002892
:10ADE00005D1641CB442F7D3022038700020BDE8BE
:10ADF000F0810000D4D90F00CCD90F008A000020C8
:10AE000070B514460D46064600F036F8291930197B
:10AE10002246BDE8704000F02FB830B50C4605461C
:10AE200000F035F828192146BDE8304000F02FB871
:10AE300028B10068884205D048F24050704748F277
:10AE4000105070470020704728B139B10022C1E985
:10AE500000201046704748F21050704748F21350D7
:10AE6000704720B1914205D048F21150704748F226
:10AE700010507047002070470244521E04E000BF8B
:10AE800011F8013B02F801398242F9D270470144BE
:10AE9000491E05E002780B7800F8013B01F8012912
:10AEA0008142F7D2704700002DE9F041040007D03D
:10AEB000044E4FF47A47751C3846A847641EFAD1F1
:10AEC000BDE8F081E0D50F00AFF300804FF44050B3
:10AED000074A4168914207D18068411EC1F30B01C6
:10AEE000401A00F6FF7070474FF480507047000022
:10AEF000DBE5B15100B5FFF7E9FF054989690A189B
:10AF0000401E0844C0F30B00101A00F6FF7000BD8D
:10AF10000C1E002000210160416081600148016336
:10AF2000704700000C1E00202DE9F0419846244F88
:10AF300016460C460546002301215BB1012B11D0BA
:10AF4000022B1ED00020381AA0F54050A8421BD278
:10AF500001221AE0FFF7CEFF8EB11A49096A0129D2
:10AF6000F1D00CE0FFF7B2FFB8F1000F05D14FF4BC
:10AF70004051154A4968914201D00121E3E700217F
:10AF8000E1E74FF48050DEE7002242EA0400884304
:10AF900005D0022B03D25B1CDBB2022BCCD912B141
:10AFA0000420BDE8F081022B02D300F099FA00E002
:10AFB0001BB104481830FFF7ADFF0020F1E7000097
:10AFC00000800F000C1E0020DBE5B15170B5044677
:10AFD0000078092811D2DFE800F0100510112510C3
:10AFE000381013000D461D490320C9688847606961
:10AFF00000F064FBFFF7BDFA687070BD084628E0FA
:10B000000D46A18A206900F035FBFFF7B2FA68709F
:10B010002846FFF765F8E1680029EED02069BDE811
:10B02000704008470C460D490831081F00F060FBCE
:10B03000FFF79FFA60700128DFD1002000F040FA8E
:10B040000028DAD00A20607070BD08464FF4007105
:10B05000C160BDE87040FFF743B8000098000020D1
:10B0600070B51A4A05780124936C092D2CD2DFE8BB
:10B0700005F02B052B0B0F2B252B080000F07AFF7A
:10B0800022E000F0EDFF1FE08B60106D48601BE0D8
:10B09000D2E91454566C2C1BA64203D008204870E9
:10B0A000012411E00024556554642146D36400F066
:10B0B0009BFF07490420C968884705E08B60106D35
:10B0C00048604FF48050C860204670BD0C1E0020C0
:10B0D0009800002013460A460146014800F02ABCA9
:10B0E000F000002002490022024800F039BC0000B4
:10B0F00054D80F00F000002008B5009313460A460C
:10B100000146024800F058FC08BD0000F000002095
:10B11000084910B508600020FFF7B0F9064800F0B4
:10B120001FFA002804D1BDE81040034800F036B8EB
:10B1300010BD0000900000207DA40F00054910B54F
:10B140004FF0DF3008606420FFF7AEFEFFF7DAF85B
:10B15000002010BDFCFF03201FB58908002201ABB1
:10B16000009283E80700684618DF04B010BD0000B5
:10B170001FB5094A4FF480541069D2E90612CDE98F
:10B180000004CDE90212684618DF072802D16004E6
:10B190000460002004B010BDF0D70F0010B504000B
:10B1A00011D00020FFF79EFF00280BD100F050FACD
:10B1B00000F0E4FA48B10949081F00F099FA0128A3
:10B1C00003D0032010BD072010BD04480838C46018
:10B1D0000020FFF7DDF9002010BD0000A0000020D6
:10B1E000816819B1024A1821FEF750BD0720704747
:10B1F000F5B10F00AFF3008030B587B004461822D8
:10B2000031496846FDF799F820788DF800002278DA
:10B210002E4D0D2A55D2DFE802F0072D472D2D5473
:10B220002D252D21091C2900012018E04FF0805008
:10B23000D0F800110191D0F804110291D0F80C114E
:10B2400089020491D0F810118902039100690590D8
:10B250002AE06946204600F05BFF25E0207C8DF85F
:10B26000040021E0208AADF804001DE0E968072011
:10B27000884719E020466946062A01D0012A01D1F3
:10B28000027C2A702A78012A07D0022A08D00020DE
:10B29000287005208DF8010006E0FFF797FE03E017
:10B2A000FFF7DEFE00280AD0D4E901126846904775
:10B2B0009DF80100012802D0E9680520884707B001
:10B2C00030BD0220E6E7000028D80F0098000020DB
:10B2D000F0B5521E87B00E4605464C1C97B2182298
:10B2E0001F496846FDF729F830788DF80000019570
:10B2F0000C282CD2DFE800F02B0D062B2B2B0A2478
:10B300001E282B2820882880688020E02078049040
:10B310001DE028886880207804902179D4F8010005
:10B3200061F31F6005900498012810D1686900F04E
:10B33000FDF80CE00494ADF81470A868039009E0DF
:10B34000A889ADF8100002E020788DF81000A968F7
:10B35000204688476846FFF743FF07B0F0BD00006E
:10B3600074D80F0000207047014901F07BBD000038
:10B3700000F00F0010B5FFF7B5FE30B900F01CF873
:10B38000002000F09DF8002800D0032010BD000030
:10B3900010B5FF224FF400710648FCF7EFFF054897
:10B3A00020212438FCF7F1FF024900205C390863B2
:10B3B00010BD0000681E00202DE9F0472E48FEF762
:10B3C000B5FE2E4E074634682046FEF7AFFE4FF01E
:10B3D000010A4FF0000958B16068012806D02046E4
:10B3E000FEF758FDD4F85C12884201D1012500E037
:10B3F0000025234C4FF002084FF460719FB10A46BC
:10B400001D492046FCF799FF9DB136682546542218
:10B41000311D281DFCF791FF40F2C72206F15C01A7
:10B4200005F15C0003E015B30A4615483168FCF7E6
:10B4300084FF6068012818D11249402201F2C71028
:10B44000FCF77BFF0F491C22403101F2C710FCF7CB
:10B4500074FF84F8609284F8A1A20B4884F8E29209
:10B46000E169C0F82210C4F80480BDE8F087044800
:10B47000FCF78BFFF7E7000000F00F00A8000020AA
:10B480000C1E0020681F00208C20002070B505468F
:10B49000094801F0F1FC084C20602046FEF7FAFC58
:10B4A000C4F85C02A4F5E0632A462146BDE870407A
:10B4B000024801F0E6BC00000C1E002000F00F0066
:10B4C00070B505460020FFF7E1FF040003D10349F2
:10B4D000284601F0C7FC204670BD00000C1E00206D
:10B4E00010B54FF440540C496068884213D10023D2
:10B4F00004220A49201DFFF7FFFD00280BD1084850
:10B50000016A012901D1002101628169A268114407
:10B51000A1F58051816110BDDBE5B15140D80F002C
:10B520000C1E00204FF48050704700002DE9F041C0
:10B5300007460948094D401BC6080020044607E09D
:10B5400005EBC400416838468847002802D1641CD6
:10B55000B442F5D3BDE8F081DCD90F00D4D90F0097
:10B560002DE9F04107460948094D401BC608002057
:10B57000044606E055F8341038468847002802D1C2
:10B58000641CB442F6D3BDE8F0810000DCD90F00A2
:10B59000D4D90F00012201F00BBA38B51446027855
:10B5A0000B467AB1012A04D0022A0DD0032A1BD1FE
:10B5B00012E0D0F80150002221461846FEF798FD0F
:10B5C000A84211D1012038BD01B02246BDE830406B
:10B5D0000023401C00F00AB8411C402200200094C7
:10B5E00000F0F6F80128EED0002038BD2DE9F0413A
:10B5F000AAB005462020884629901E4617460124F9
:10B600007C2102A8FCF7C1FEFEF7A0FD2EB120228E
:10B61000294621A8FFF730FC21AD29A90A48CDE928
:10B6200000013B464246094902A8FFF765FB28B9DD
:10B63000202229460448FCF7B3FE00B100242AB0BA
:10B640002046BDE8F08100006025002024D60F00D0
:10B6500010B50648064C806B20B101F09DFC08B186
:10B66000012000E00020207010BD00000C1E002012
:10B67000AC0000202DE9F0410F4C07460D46E06B71
:10B68000A26B01264119914201D9032610E00A4913
:10B690002A465C3108443946FCF74FFEE06B064A07
:10B6A0002844E063403229463846FEF721FD2064F5
:10B6B0003046BDE8F08100000C1E002070B504008B
:10B6C0004FF0010504D0B4F5007F03D9042508E04C
:10B6D000032506E0044900200870FFF759FE0348DF
:10B6E0008463284670BD0000AC0000200C1E0020C2
:10B6F0002DE9F04106461F480F46C16B806B814221
:10B7000001D0082433E01C4D287840B1FFF7F2FB4C
:10B7100030603946E86801F0B7FE044627E001F0E2
:10B720003BFC18B300F030F804460020306038606D
:10B73000012C12D13946E86801F0A6FE0446012822
:10B740000BD1E8683F6801F0CBFE034600210A46B2
:10B750003846FFF7E9FB18B10424FFF719FE06E0AD
:10B76000FFF7C8FB30600120287000E00524204668
:10B77000BDE8F0810C1E0020AC00002001480078DC
:10B7800070470000AC00002038B50F48041D0025AC
:10B7900090F86C3129462A463BB190F8D852B0F85F
:10B7A000DA2200F5B87400F5377108488368009311
:10B7B0004368284600F00CF8012804D1201DBDE89C
:10B7C000384000F051B838BD8C210020AC0000207A
:10B7D0002DE9F041CCB0064620200D464A901F4688
:10B7E0001446DDF848817C212BA8FCF7CEFDA4216E
:10B7F00002A8FCF7CAFDFEF7A9FC25B12EB1162060
:10B800004CB0BDE8F0811320FAE74AA91448CDE90D
:10B81000000143463A4613492BA8FFF76DFA08B9D1
:10B82000402C01D00A20EBE70D482246294640383B
:10B83000FCF783FD0A4820214038FFF7EEFA08485C
:10B8400040214038CDE90001A0F14801044A02A896
:10B850004A9BFFF727FA08B10520D1E70120CFE77F
:10B860004025002024D60F0070B5044690F85400FF
:10B87000012570B394F8550028B1012803D002289F
:10B8800001D003282AD194F86E00032801D0142592
:10B8900025E0207AE8B1E068342801D011251EE0C7
:10B8A000204601F0B1FA68B1207898B194F85510AB
:10B8B0000C4849B1012907D06168C06881420ED89F
:10B8C00010250CE012250AE061688068814206D2EA
:10B8D000F6E703E094F85500012800D00F2528462C
:10B8E00070BD00000C1E002070B5064604780C48A0
:10B8F00088B0154640F82420094A0869083242F801
:10B90000240020226846FCF718FD04940DB1054A76
:10B9100000E000226946301D00F08CF908B070BDCF
:10B92000BC00002025D30F00001D00F0B9B9001D98
:10B9300000F038BA2DE9F0410446406815461E462D
:10B9400002680F466A432046FEF76DF920683346C9
:10B950002A46D0F810C039462046BDE8F04160477D
:10B9600001600B68114618472DE9F04128B10168C4
:10B9700019B1C969BDE8F04108470D4D0D480024D3
:10B98000461B14270DE000BF04EB840005EB80008C
:10B99000016829B1C969884710B10120BDE8F0816B
:10B9A000641CB6FBF7F0A042EED80020F6E70000DA
:10B9B000F0000020040100202DE9F84304461D4654
:10B9C00016460F460846DDF82080FEF726F9304679
:10B9D000FEF723F92A4639462046FEF724F9CDF82A
:10B9E000008020682B463246D0F80CC039462046ED
:10B9F000E047BDE8F8832DE9FF411C46DDE90A7800
:10BA000015460E46684600F04FF846EA450141EA01
:10BA1000840141EA072242EA0841009A00EB8200D1
:10BA2000C0F80017BDE8FF811CB5002100910B464E
:10BA300001220191FFF7DFFF1CBD1CB500220B4660
:10BA4000009211460192FFF7D6FF1CBD08B5009089
:10BA5000684600F01BF8009A032100EB8200C0F852
:10BA6000001708BD1CB5002100910B460122019171
:10BA70001146FFF7C0FF1CBD01B5684600F006F88F
:10BA8000009A01219140C0F80C1508BD01682029D9
:10BA900002D24FF0A040704701F01F010160014841
:10BAA00070470000000300500168202902D24FF0C7
:10BAB000A040704701F01F0101600148704700007D
:10BAC0000003005001B56846FFF7E0FF009A01212E
:10BAD0009140C0F8081508BD01B56846FFF7E4FFBE
:10BAE000009A01219140C0F8081508BD09490222B9
:10BAF0000A60BFF36F8FBFF34F8F0A1D10600648B7
:10BB00000268002AFCD000200860BFF36F8FBFF3EB
:10BB10004F8F704704E5014000E40140094A0123CA
:10BB20001360BFF36F8FBFF34F8F0160064801684A
:10BB30000029FCD000201060BFF36F8FBFF34F8F40
:10BB40007047000004E5014000E4014070B50E4C70
:10BB500001232360BFF36F8FBFF34F8F00230B4D83
:10BB600008E000BF51F8236040F823602E68002EE3
:10BB7000FCD05B1C9342F5D300202060BFF36F8F95
:10BB8000BFF34F8F70BD000004E5014000E40140A9
:10BB900001480068C0B270471C05004008B500228B
:10BBA00042504058009008BD4058002800D0012065
:10BBB000704708B5002242504058009008BD000070
:10BBC00002480068002800D00120704700040140AE
:10BBD0000121B1EB507F01D1012070470020704757
:10BBE00070B50D4600F0E8FF04000FD00020FEF70E
:10BBF000D1F8207920B10020FEF7CEF8112070BDD9
:10BC00000120256020710020FEF7C6F8002070BDDD
:10BC100010B500F0D1FF002802D0002101600171B1
:10BC200010BD00000149024801F094BB80250020AE
:10BC3000002000402DE9F0410546164600790F46E8
:10BC4000154A00EBC00102EB810494F8201011B1F9
:10BC50000820BDE8F081114951F820102868FFF74D
:10BC6000BFFF08B11120F4E739462846FEF7A8F8CF
:10BC70006660386920601EB1397F2846FEF714FDE2
:10BC800028680821C0F800150020A061E06160610B
:10BC9000012184F82010DCE78025002044D80F0023
:10BCA0002DE9F05F044600790E4600EBC001DFF895
:10BCB000F0A017460AEB81053046FFF789FFB0B1C7
:10BCC00068684FF000084FF4047910B12168C1F89A
:10BCD0000893A8694FF0000B80B1E86948B1686823
:10BCE00010B12068C0F804931120BDE8F09F102027
:10BCF000FBE7EF614FF001082E6102E0EE60C5E95D
:10BD0000067B00254FF488712068FFF752FF4FF43F
:10BD1000A2712068FFF74DFF2068C0F83465C0F8B5
:10BD200038752068B8F1000F12D0D0F8001241F039
:10BD30002001C0F800122079D04600EBC0010AEBC8
:10BD40008100406838B12068C0F804932846CCE7E9
:10BD500001210160EFE74FF4887A4FF4A279514650
:10BD60002068FFF721FF074649462068FFF71CFFC0
:10BD700006464FF492712068FFF716FF014647EA26
:10BD800006000843EBD0227902EBC20308EB8302E2
:10BD9000C2F818B001B10325002ED7D00F25D5E782
:10BDA000802500202DE9F04704460E4600792749FA
:10BDB00000EBC00001EB800517463046FFF708FF97
:10BDC00030B1204600F044F820B11120BDE8F087E2
:10BDD0001020FBE76F61AE604FF490774FF00008E2
:10BDE00039462068FFF7E5FE4FF4AC76314620680F
:10BDF000FFF7DFFE2068AA686969C0F84425C0F82B
:10BE0000481520684FF00109C0F808906868D0B95B
:10BE1000BA4651462068FFF7C7FE074631462068FC
:10BE2000FFF7C2FE0743F4D010B14FF00F0808E04F
:10BE30002068C0F80C9031462068FFF7B5FE002856
:10BE4000F9D0002068614046C0E70000802500204E
:10BE50000079054900EBC00001EB80004069002833
:10BE600000D0012070470000802500202DE9F04718
:10BE7000064600793D4900EBC00001EB80053468BF
:10BE800068680127A8B13A49C4F80813306840F33C
:10BE9000073000280DDB00F01F0107FA01F140090F
:10BEA000800000F1E020C0F88011BFF34F8FBFF396
:10BEB0006F8FD4F8000220F02000C4F80002A869B7
:10BEC0004FF4A27820B141462046FFF772FE67602A
:10BED0004FF4AC7949462046FFF76BFEE7604746D2
:10BEE00049462046FFF760FE0028F9D0A86928B12E
:10BEF00039462046FFF758FE0028F1D04FF0000ADF
:10BF0000C4F800A53068D0F80C25D0F81495D0F806
:10BF10000885D0F810754FF0FF31C0F80C15C0F847
:10BF200014153068C0F80815C0F81015501C02D060
:10BF30001046FFF779FDB9F1FF3F02D04846FFF701
:10BF400073FD781C02D03846FFF76EFDB8F1FF3F55
:10BF500002D04046FFF768FD2046FFF759FE85F8FE
:10BF600020A0C5F804A0BDE8F087000080250020CF
:10BF7000100342002DE9F0410C460546FFF7FEFB99
:10BF80000826B8B16969032041B3154A154B0F055E
:10BF900005D0576DD3F808C00F4467451ED1B1F5E1
:10BFA000805F01D9042019E0506DD3F808C047180C
:10BFB000674502D96670BDE8F0815164D16C1065A7
:10BFC0009164106369695A6801F6FF711044090BA6
:10BFD0000022FFF77FF80028EDD005206070EAE727
:10BFE0000C1E00209800002010B5044686B00020EA
:10BFF000FFF7BAFC30B1154A18212046FDF746FE7E
:10C0000006B010BD182212496846FCF796F911488F
:10C01000026D114881688A4210D14068FFF7BAFA70
:10C020008DF80100FEF7A5FA8DF80100D4E90112A0
:10C03000684690470948FFF743FAE1E701208DF889
:10C040000100D4E9011268469047D9E7E9BF0F0023
:10C0500010D80F000C1E002098000020E1C00F0037
:10C060002DE9F0410E460446FFF788FB60B11A4DFA
:10C07000D5E91401401AA18A6A6C0844904205D996
:10C0800003207070BDE8F0810820FAE7134A286B9E
:10C0900052688718104A20694832FEF729F8D4E917
:10C0A00003318046A28A3846FFF726F820B1D4E94A
:10C0B0000310BDE8F0410847A18A286B08442863B3
:10C0C000A18A286DC5F8488008442865C6F808800C
:10C0D000286D7060D6E700000C1E0020980000203C
:10C0E00001490620C968084798000020BFF34F8F18
:10C0F00005480168054A01F4E06111430160BFF39E
:10C100004F8F00BFFDE700000CED00E00400FA05D2
:10C110002DE9F0414FF440520C46204E5368012166
:10C120004FF0020CB34200D102211D4D2B6A012BAE
:10C1300000D1491C01276770037C1BB10020012B33
:10C1400009D01BE084F804C0E868A0601548E060EE
:10C15000C0F57E200FE0D2F804C0B4450ED12071A6
:10C160001078142801D9506900E00020A0604FF435
:10C170008050E06090682061BDE8F0818B4207D27A
:10C180002771A868A060FEF79FFEE060A869F2E74B
:10C19000FF212171A060E060EDE70000DBE5B15117
:10C1A0000C1E002000800F00011F0148FEF77BBB22
:10C1B000DCD90F00F8B50D4614460646694600F076
:10C1C00057FA00280FD0009BB3F5803F0AD2981C85
:10C1D000834207D8A9780222B2EB911F02D02989A5
:10C1E000814201D20020F8BD2380A11C3046009A74
:10C1F00000F074FBF8BD114600F0D6B8114600F00F
:10C20000E3B8F8B50C4615460646694600F030FA24
:10C2100000280CD0009A501C904207D3A17802232A
:10C22000B3EB911F02D02189814201D20020F8BDD9
:10C230002946304600F052FB009A0021A954F8BD6F
:10C240002DE9FF410C46CE6817460546694600F0C9
:10C2500017FB00280ED0E06800280BD0A0783A46E3
:10C26000C0F3011002283146684606D000F0DAF823
:10C270000199696004B0BDE8F08100F086F8F7E745
:10C280007CB50D461446694600F08FF9002820D091
:10C290002889082806D0042809D002280AD00128B5
:10C2A0000CD015E0DDE90001C4E900010AE00098C6
:10C2B000206006E0009800B2208002E0009840B2C2
:10C2C0002070C117DDE9002350405940084301D0D8
:10C2D00000207CBD01207CBD7CB50D46144669461E
:10C2E00000F0A1F9002820D02889082807D00021D3
:10C2F000042809D002280AD001280CD014E0DDE976
:10C300000001C4E9000109E00098206006E00098FF
:10C3100080B2208002E00098C0B22070DDE90023E6
:10C3200050405940084301D000207CBD01207CBD15
:10C330007CB50D461446694600F075F9002821D0F9
:10C340002989082908D00098C21704290BD002298E
:10C350000DD001290ED014E0DDE90002C4E900028D
:10C360000146134609E0C3170146206005E001B20B
:10C37000218001E041B22170CB1741405340194365
:10C3800001D000207CBD01207CBD70B50D46064665
:10C3900014461146284600F08EFA224629463046B9
:10C3A000BDE8704000F03EB838B50C46042269463E
:10C3B00000F094FA002806D09DF80310009861F36D
:10C3C0001F602060012038BD1CB50C46082269465C
:10C3D00000F084FA002824D09DF801109DF8002078
:10C3E0009DF80230080E42EA012242EA034240EA86
:10C3F00013409DF803309DF8041040EA13200843D1
:10C400009DF8051042EA036240EA01209DF80610FB
:10C4100040EA01409DF8071040EA0160C4E90020AD
:10C4200001201CBD2DE9F04F04469DB00020009076
:10C43000064601904FF0FF3A0AA800F05DF94FF070
:10C44000010BE94682E012AB05AA06A9204600F0DE
:10C45000C9F850B10AA8059900F05FF960B10B98CE
:10C46000807810F0300F53D060E09DF8480000282D
:10C4700070D11DB0BDE8F08F0598B04242D30B9D3E
:10C480000AAE0B98807800F00F00082812D03046D2
:10C4900000F05AF90B98A842F3D156460599B142DB
:10C4A00030D3D4F8088009919DF8181008910E999E
:10C4B0000D6820E00B980688F0E729680F682FB117
:10C4C000DDE9083229462046B84711E01194896811
:10C4D000DDE90872098891420CD1294617A8FEF7B8
:10C4E0005FF985F80CB017AA39461198FDF78DFE53
:10C4F0000028BED0AD6815B1A1684145DDD0A16866
:10C50000414523D19DF81810204600F023FA1BE086
:10C510000C9840280AD200F01F010BFA01F00C9988
:10C520004A0959F82230034349F82230E5682DB111
:10C530000AAB9DF8182020460599A8470AAA9DF83D
:10C5400018102046FDF761FE002892D0A068002850
:10C550007FF479AFDDE90B0485780AA800F0F4F8E0
:10C560000028F7D115F0300F03D10B98008800B1E7
:10C57000641CC4B10020494605E000BF51F82020EA
:10C58000521C0ED1401CB0EB541FF7D3600959F870
:10C59000201004F01F00C0F120022AFA02F08142AC
:10C5A00001D0002065E7012063E71CB50C46694611
:10C5B00000F039F8002814D0DDE90002C10709D0E5
:10C5C00051084FEA30006FEA00026FEA0100C4E947
:10C5D000002004E051084FEA3000C4E900014FF0A8
:10C5E00001001CBDF8B507460020187008700E4603
:10C5F00010601C4615466946384600F039F80100BF
:10C600004FF0010009D0009959B1C808286000987E
:10C6100000F0070030700120F8BDB96809B10020B2
:10C62000F8BD2070FBE72DE9F843002688468146D7
:10C630003446354604E0402E02D30020BDE8F8839E
:10C640006946484600F076F90028F7D09DF800705A
:10C65000324607F07F00C10FFBF760FE2943044319
:10C66000F61D0D463806E6D4C8E900410120E5E78D
:10C67000F8B50E460746694600F05CF900280AD076
:10C680009DF80040200616D5072504F07F0403E03E
:10C69000202D01D30020F8BD6946384600F04AF944
:10C6A0000028F8D09DF8001001F07F00A840044356
:10C6B000ED1D0806ECD401203460F8BD10B55968B2
:10C6C0000B4AC968914212D10A4AD0E90110D2E955
:10C6D0000134234301D0002008E011F8013BA0F110
:10C6E00001001B06F9D4C2E901100120907010BDB1
:10C6F000A0D60F00AC000020C26000230160C0E99A
:10C7000001138B881A440261B1F906301A44426160
:10C710000888002800D00120704770B545680E4693
:10C72000044660680188B14206D1807800F00F00AD
:10C73000082801D0012070BD204600F005F860688F
:10C74000A842EED1002070BD30B541680A885AB1C8
:10C7500001F1100343600A8A42B18C780A89C4F35C
:10C760000115032D07D00BE0002030BDC268016821
:10C77000FFF7C2FFF8E79D78C5F30115032D06D03A
:10C780000225B5EB141F08D14C89624309E08D885E
:10C7900004690022641B046103E0B5EB941F00D11F
:10C7A0000422897811F0300F02D18168491C816020
:10C7B0009C880169214411440161B3F906201144A8
:10C7C0004161012030BD30B54168002487B08978CF
:10C7D00001F00F02082A11D08A091ED00222B2EB02
:10C7E000911F09D10269C1F301110229146001D01E
:10C7F000032901D14069048007B030BD0069056894
:10C8000008E02C7329466846FDF7CAFF6846FFF723
:10C81000DAFFAD68002DF4D1EEE7C1F30111012973
:10C8200012D00229E6D00329E4D04268917801F0C1
:10C830000F0107290BD0D16881B11289006907B0B7
:10C84000BDE83040FBF779BD41690C70EDE7016947
:10C85000D06807B0BDE8304000F02DB811890069FC
:10C8600007B0BDE83040FBF790BD000010B5034BAA
:10C87000002408C080E8160010BD00005D9F0F0076
:10C8800038B50D4604466946FFF7F2FE00280BD086
:10C89000D4E90002D4E90213C5E90002C5E9021394
:10C8A0000098814201D2002038BDA860A168081A12
:10C8B000A060012038BD00B50A4687B00146684631
:10C8C000FFF71AFF002807D06846FFF77CFF68468D
:10C8D000FFF73AFF0028F7D107B000BD7FB5144637
:10C8E0000546A9B9124A2868904208D110E01022E2
:10C8F00069462846FFF7F2FF002807D0103C102CAD
:10C90000F5D8224669462846FFF7E8FF04B070BD17
:10C91000A868A04201D20020F8E72B6822462846EA
:10C9200098470028F2D0A868001BA8600120EDE716
:10C930005D9F0F0010B504468068002809D0236869
:10C94000012220469847002803D0A068401EA0601E
:10C95000012010BD38B5002439B1012912D00229B7
:10C9600012D005291DD0002038BD05460122694698
:10C970002846FFF7B3FF90B19DF800000006F5D4FC
:10C98000012038BD08220DE005466946FFF770FE1C
:10C9900028B100212846009AFFF7A0FF38BD2046A5
:10C9A00038BD0422BDE838400021FFF797BF0000E2
:10C9B0002DE9F04F8046374814460F46C6680A46B0
:10C9C00093B0012541463046FDF7F4FDDFF8C890ED
:10C9D000AB4678B196F8550070B100F00101CDE991
:10C9E0000074C0F340028A464346304600F058F8CF
:10C9F00020B32DE017252BE0CDE9007B4346DA4636
:10CA00000022314602A8FDF74BFA80B184B34122DF
:10CA100002A92248FBF791FC0020C9F82CA0C9F814
:10CA200020004C46304600F05BFD10B103E00525C8
:10CA30000EE0FEF755FD7068A06022E0052514EABF
:10CA40000A0F05D0FEF76EFD404501D1FEF748FD07
:10CA50007CB1012D15D010482430FEF75BFA00BFE1
:10CA6000FEF796FCC9F8488013B02846BDE8F08F61
:10CA700004E0012D02D0FEF78BFCF5E7C9F814B0F5
:10CA8000F2E7002239464046FDF732FBC9E909705A
:10CA9000E6E70000AC0000200C1E0020AD200020C6
:10CAA0002DE9F047A4B08946DDE92C5A04469846A2
:10CAB0001746442102A8FBF768FC442113A8FBF7A2
:10CAC00064FC4646B9F1000F3AD008F50050374AE9
:10CAD0004368A16D93421DD14B1EC3F30B03C91ACA
:10CAE00041F6FF73D0F808C019448C4512D34FF4B7
:10CAF00040514B68934211D10A78102A01D9096933
:10CB000000E000210278102A01D9006900E000202D
:10CB1000814203D0002024B0BDE8F0874046FDF7F5
:10CB20000FFE0121A06DCDE9000143460022214600
:10CB300002A8FDF7B5F90028EDD0A06D06442D1A26
:10CB400057B10020CDE9005033464A46214613A88C
:10CB5000FDF7A6F90028DED0BAF1000F23D0144D5E
:10CB6000B9F1000F14D04046FDF7EAFD18B105F108
:10CB70001800FEF7CFF9412202A90E48FBF7DDFBB2
:10CB80000FB1AC2000E0A520E862A06D686301E071
:10CB9000AA20E8623FB10748412213A98230FBF77F
:10CBA000CCFB6068E8600120B5E70000DBE5B1512F
:10CBB0000C1E00206C2000200349884201D103484C
:10CBC000704700207047000000200040CC0000208B
:10CBD00010B510461A46FBF7B0FB002010BD2DE93A
:10CBE000F0411E681C461546074621B1012918D0A0
:10CBF000052923D119E000202060401C2060B042AC
:10CC00001CD8012229463846FFF768FE002806D0C6
:10CC100015F8010B000601D52068EEE70120BDE8FC
:10CC2000F08108200246186002E0042002461860E5
:10CC300029463846BDE8F041FFF750BE0020EEE738
:10CC40002DE9F04104690646602020700878607084
:10CC50000D464878A07068780321012802D00B287F
:10CC600059D05FE028780C285CD2DFE800F0065B42
:10CC70005B355B5B3B4E5B0609242879E07050E036
:10CC8000E11C686800F0EFFBC01CC7B2E119A8689E
:10CC900000F0E9FB3844C7B2E119E86800F0E3FBB3
:10CCA0003844C7B2E119286900F0DDFB3844C7B247
:10CCB000E119686924E02879E070211DA86800F076
:10CCC000D2FB001DC7B2E119E86800F0CCFB384484
:10CCD000C7B2E119286913E0E11C686800F0C3FBE2
:10CCE000C01C0AE0E11CE86800F0BDFBC01CC7B234
:10CCF000E119686800F0B7FB3844C7B2E119A868C9
:10CD000000F0B1FB3844C1B20CE0A988E170090A17
:10CD10002171052106E0FDF733FCE0700020FDF7EE
:10CD200037FC042120467268BDE8F04110470846F0
:10CD30007047000008B50A4601466B46044800F0FB
:10CD4000FFF800980249C2B20248FEF7F0FD08BDA4
:10CD5000B8020020140000201FB501238DF8003018
:10CD6000CDE90121D0E90012684690471FBD0000BF
:10CD700070B5FEF7D7FB114A114E136B546B916CD3
:10CD8000E21A551EC5F30B05521B42F20405184466
:10CD90006D5802F6FF72B54201D0032070BD1944F0
:10CDA000A34201D1002070BD0823FDF72BFC002811
:10CDB000F9D1BDE87040FEF783BB00000C1E0020D7
:10CDC000DBE5B151F0B50546002003464FF4405471
:10CDD0000C4E4FF6FE7712E0D4F804C0B44505D1EE
:10CDE00055F823C0B4F80CE0F44504D02AB155F846
:10CDF00023C0BC4501D10120F0BD5B1CDBB28B42DE
:10CE0000EAD3F0BDDBE5B1514FF44051144B4A6811
:10CE1000018A9A421CD151B100F11403426990F881
:10CE2000550042B1042804D00022C9B20BE0002012
:10CE300070470122F9E710B1012807D1F7E701296E
:10CE400004D9C9B200221846FFF7BCBF01207047C1
:10CE500011B141690029EAD100780028F6D1704764
:10CE6000DBE5B15102460348014B006800F009B808
:10CE70008C1A0020A800002000225821001DFDF778
:10CE800037B92DE9F04114464FF460751E460F4640
:10CE900080462A46FBF784FA30B100220121404641
:10CEA000FEF718F998B905E00CB10020A047002062
:10CEB000BDE8F0812A4639463046FBF73EFA234664
:10CEC0002A4631464046FEF717F90028F0D00320E5
:10CED000EEE730B528B1D0E902239A4203D104200D
:10CEE00030BD0E2030BD04782CB10023012C10D0B1
:10CEF000022C23D11EE0C02906D0DB2906D04468CD
:10CF0000531C8360A15419E0002030BD0121017041
:10CF100014E0DC2905D0DD2905D0022101700B20A9
:10CF200030BDC02400E0DB244568511C8160AC5456
:10CF3000037003E0C02901D103708360112030BD6C
:10CF4000F0B528B121B11BB10024DB261C6019E02B
:10CF50000E20F0BD0F5DC02F02D0DB2F0BD105E0FE
:10CF60001D686F1C1F604655DC2704E01D686F1CA0
:10CF70001F604655DD271D68641C05F1010CC3F8D0
:10CF800000C047559442E5D31968C0244A1C1A6072
:10CF900044540020F0BD00007FB52A4800F15C0138
:10CFA000826B6846FFF762FC274E9DE8070006F19A
:10CFB0001C03274C83E8070019462448C86000205A
:10CFC000A0706060A0604FF44771A6F54070FBF759
:10CFD000DCF9A6F540721F4902F54770FFF7D5F955
:10CFE00000282BD0A07858B3A6F5407090F86C11AB
:10CFF000002901781CD019BB90F8720100B3D4E964
:10D000000112A6F5C6756846FFF730FC9DE80F00D3
:10D010001C3686E80F004FF4B2712846FBF7B5F9CD
:10D020002A460D493046FFF7B0F9002806D003E044
:10D0300031B1807920B1094D0120E56004B070BDA7
:10D040000020FBE70C1E00208C240020BDC60F0032
:10D05000AC000020C0D70F00A0D60F009421002004
:10D0600070B503466FF07F40814200D20846124DF2
:10D07000D5F804250244081A411E22F07F42586068
:10D08000952902D29630963A58601C7B05EB8400B5
:10D09000C0F8402509494FF4F86088474FF4A07064
:10D0A00000EB84012846FEF779FD4FF48030A04064
:10D0B000C5F8040370BD00000040024011D60F0007
:10D0C00070B5174E3078002829D116480068012520
:10D0D000C0F3004008B914480560144C4FF4807147
:10D0E0002046FEF75BFD4FF4A0712046FEF756FD8B
:10D0F0004FF4A2712046FEF751FD0D49A02081F8A2
:10D1000000040B4910202039C1F800010020C4F8A8
:10D110000805A56025600220C4F80403357070BDC1
:10D120005800002018040040080000400040024061
:10D1300024E000E070B515460E460446FFF7C0FF38
:10D14000314620462560BDE87040FFF789BF0000EA
:10D15000017B4FF4803088400149C1F808037047D3
:10D16000004002401FB500228DF800200291816826
:10D1700001914261D0E90012684690471FBD00004E
:10D1800010B5074CE17841B10649884205D004F159
:10D190000C00FEF76BFE0020E070002010BD0000C8
:10D1A0000C000020D4D90F0070B5284C88B00021A5
:10D1B000E27812B1084608B070BD60602448FDF7FF
:10D1C00087FB0028F7D12248FDF74EFB21490026B6
:10D1D000C01CC1E9010683201E4DC8600E70183DB9
:10D1E0001D4969601D49C5E9021005F1410028612A
:10D1F0001B48686120221B496846FBF79EF80B20FC
:10D2000000900C200190701E029003900F488DF842
:10D210001460154A694608300495FEF765FB00283E
:10D22000C9D10A490122891C881DFEF77DFB0546EC
:10D230000120E070616801B188470449112214316E
:10D24000A1F10C00FEF773FB2846B4E70C000020A8
:10D25000DCD90F00A802002035CD0F00A9C10F00B6
:10D26000D4D90F00E8D50F006DD20F0070B502467B
:10D270000078012802D0022825D145E02648002563
:10D2800003780BB30E46117A50680D2421B1017852
:10D290002248FFF71EFE04461F490122891C881DF3
:10D2A000FEF742FB002C0ED11C4C3046D4E9011293
:10D2B000FEF70EF81A48FDF7D7FA002803D0C01C75
:10D2C000C4E90105257070BD51680122097844291F
:10D2D00006D0462908D055290BD053290FD012E08B
:10D2E000417881B942700FE0417801290BD10221C8
:10D2F00003E04178022906D10321417004E041781E
:10D30000032900D1027045700349BDE87040012235
:10D31000891C881DFEF708BB0C000020A802002015
:10D32000DCD90F001FB50A4601788DF8001041685E
:10D330000191017A8DF80810C0680390044850F8F4
:10D340002210083850F82220684690471FBD000080
:10D35000C40000202DE9FF410C464FF492770546AA
:10D360003946FEF721FC0026B8B139462846FEF7BB
:10D3700020FC02208DF80000D5F88004C5F8800458
:10D380000390D5F83C050290E0680190A661E66143
:10D39000D4E900126846904723E04FF48877394675
:10D3A0002846FEF701FCE0B139462846FEF701FCAD
:10D3B000D5F83C15A069884213D1E06960B1E268F4
:10D3C000D5F8000220F02000C5F80002E069A06155
:10D3D0002069E661E06001E0A661E2682046FFF7AF
:10D3E000BBFC4FF4A27739462846FEF7DDFB68B157
:10D3F00039462846FEF7DDFBA06938B1A661E66133
:10D40000D5F83C152046E268FFF7A6FC4FF490766D
:10D4100031462846FEF7C8FB60B131462846FEF784
:10D42000C8FB0120E860606920B1D5F84C152046A2
:10D43000FFF798FE4FF4AC7631462846FEF7B4FB72
:10D4400000280ED031462846FEF7B3FB606900285D
:10D4500007D0D5F84C1504B02046BDE8F041FFF7E1
:10D4600081BEBDE8FF810870020A4A70020C8A7012
:10D47000000EC8700420704710B50248FDF7DEF9B1
:10D48000002010BDE800002030B50F2490F8553082
:10D4900000220BB1042B03D190F86450012D06D06B
:10D4A000DD0707D090F85650012D02D002E0826EC1
:10D4B0000DE0826D9B070AD590F85C30012B06D1F8
:10D4C000064B006EC3F57E23984205D802440AB18C
:10D4D00001240A60204630BD0424FBE700800F00D1
:10D4E000018A19B1406908B10120704700207047D6
:10D4F00030B100680549884205D048F202507047B3
:10D5000048F2015070470020704700006E524648B4
:10D5100070B5FEF755FB002811D00020084A094BD2
:10D52000094C0121166801FA00F52E4203D004EBE4
:10D530008005C5F80036401CC0B20728F2D370BD84
:10D54000080501403546526E00000140FFF7E0BF7C
:10D55000002070472DE9FC4180461C4617460E46C8
:10D560000C48089DFDF76DF910B11120BDE8FC8154
:10D57000A20839463046FEF7E9FA0648FDF75EF99B
:10D5800033463A4601214046CDE90045FCF7D6FF37
:10D590000020EBE7E800002007F0BA51D9A6241FCD
:10D5A000E7B32FE03A3BAF6B001EEA714D2642080D
:10D5B0007A485F657830AB32BD592DB99B666BDB1D
:10D5C0000276A9B0C35D52264F6F9CE84981FDA346
:10D5D0006069BA8F2575761C00000000000000000D
:10D5E0000338FDD870470000FFFFFFFFFFFFFFFF7C
:10D5F000FFFFFFFFFFFFFFFF000000000000000033
:10D600000000D6010600000000000000000000003D
:10D610000338FDD87047000048000000002040009B
:10D620000000000029A00F0039A00F00E19F0F00AB
:10D6300020000000000000000000000000000000CA
:10D6400001000100000000000100000000000000D7
:10D6500002000500010000002200000000000000A0
:10D6600000000000000000000000000000000000BA
:10D6700001000100000000000100000000000000A7
:10D680000200050001000000420000000000000050
:10D69000000000000000000000000000000000008A
:10D6A000010011000400FCFF040000000000000065
:10D6B000020011000400FCFF040000000000000054
:10D6C000030021000400FCFF040010000000000023
:10D6D000040011000100FFFF010000000000000035
:10D6E000050011000200FEFF040000000000000021
:10D6F000060011000400FCFF040000000000000010
:10D70000070011000400FCFF0400000000000000FE
:10D71000080017000200FEFF2400000040D60F00A2
:10D72000090010000100FFFF010000003CD60F00BF
:10D730000A0027000200FEFF4400030070D60F001D
:10D7400000000000000000000000000000000000D9
:10D75000010011000100FFFF0100000000000000B7
:10D76000020017000200FEFF64010000A0D60F00B7
:10D7700000000000000000000000000000000000A9
:10D7800001000700000000006801000050D70F00F2
:10D790000200010000000000010000000000000085
:10D7A000030005000100000042000000000000002E
:10D7B0000000000000000000000000000000000069
:10D7C000010017000400FCFF6801000050D70F00A3
:10D7D000020017000400FCFFAC01000080D70F001E
:10D7E0000000000000000000000000000000000039
:10D7F0000200000000000000000000000000000027
:10D800000600000000000000000000000000000012
:10D810000400000000000000000000000000000004
:10D8200000000000000000000001000000000000F7
:10D8300000000000000000000000000000000000E8
:10D840000000000025BC0F000010000004000000D4
:10D85000010000009DA60F0079D40F00D1CB0F006E
:10D8600055D50F00F5A40F002FCD0F0051D50F0097
:10D8700031A70F000000000000000000A5A40F0069
:10D8800000000000000000000000000031C30F0095
:10D89000D9C20F0081C20F00F7C10F00FDC10F00F8
:10D8A000B5C10F0003C20F0041C20F00000000000D
:10D8B000020000000000000015980F00C1970F0043
:10D8C00067E6096A85AE67BB72F36E3C3AF54FA511
:10D8D0007F520E518C68059BABD9831F19CDE05B3D
:10D8E000FFFFFFFFFFFFFFFFFFFFFFFF0000000044
:10D8F000000000000000000001000000FFFFFFFF2B
:10D90000FCFFFFFFFFFFFFFFFFFFFFFF0000000026
:10D91000000000000000000001000000FFFFFFFF0A
:10D92000512563FCC2CAB9F3849E17A7ADFAE6BCC1
:10D93000FFFFFFFFFFFFFFFF00000000FFFFFFFFF3
:10D940000000000096C298D84539A1F4A033EB2D11
:10D95000817D0377F240A463E5E6BCF847422CE101
:10D96000F2D1176BF551BF376840B6CBCE5E316B45
:10D970005733CE2B169E0F7C4AEBE78E9B7F1AFE09
:10D98000E242E34FFFFFFFFF7F0000008000000046
:10D990000000000000000000FFFFFFFF7F0000000C
:10D9A000800000000000000000000000F0D90F001F
:10D9B00008000020FC000000FC9B0F00ECDA0F00C8
:10D9C00004010020A46400000C9C0F009DA00F0027
:10D9D000D5A00F00A9D10F0081D10F004400002075
:10D9E00040000020430000200401002084000000CB
:10D9F0000000000000000000000000000000000027
:10DA000000200040000000007E7E7E7E7E240340D9
:10DA10000001BE0D0A01000100000000000000002E
:10DA200000000000000000000000000000000000F6
:10DA300000000000000000000000000000000000E6
:10DA400000000000680000207800002000000000B6
:10DA500000000000000000000000000000000000C6
:10DA600000000000000000000000000001000000B5
:10DA700000000000000000000000000000000000A6
:10DA80000100000000000000000000000000000095
:10DA900000E00F0000000000000000000000000097
:10DAA0000000000000000000000000000000000076
:10DAB0000000000000000000000000000000000066
:10DAC0000000000000000000000000000000000056
:10DAD000000000000090D0030000000000000000E3
